{
  "_format": "hh-sol-artifact-1",
  "contractName": "Gaslessregalis",
  "sourceName": "contracts/Gaslessregalis.sol",
  "abi": [
    {
      "inputs": [
        {
          "internalType": "string[]",
          "name": "characterNames",
          "type": "string[]"
        },
        {
          "internalType": "string[]",
          "name": "characterImageURIs",
          "type": "string[]"
        },
        {
          "internalType": "address",
          "name": "_VRFCordinator",
          "type": "address"
        },
        {
          "internalType": "address",
          "name": "_LinkToken",
          "type": "address"
        },
        {
          "internalType": "bytes32",
          "name": "_keyHash",
          "type": "bytes32"
        },
        {
          "internalType": "uint256",
          "name": "_fee",
          "type": "uint256"
        },
        {
          "internalType": "contract MinimalForwarder",
          "name": "_minimalForwarder",
          "type": "address"
        }
      ],
      "stateMutability": "nonpayable",
      "type": "constructor"
    },
    {
      "anonymous": false,
      "inputs": [
        {
          "indexed": true,
          "internalType": "address",
          "name": "owner",
          "type": "address"
        },
        {
          "indexed": true,
          "internalType": "address",
          "name": "approved",
          "type": "address"
        },
        {
          "indexed": true,
          "internalType": "uint256",
          "name": "tokenId",
          "type": "uint256"
        }
      ],
      "name": "Approval",
      "type": "event"
    },
    {
      "anonymous": false,
      "inputs": [
        {
          "indexed": true,
          "internalType": "address",
          "name": "owner",
          "type": "address"
        },
        {
          "indexed": true,
          "internalType": "address",
          "name": "operator",
          "type": "address"
        },
        {
          "indexed": false,
          "internalType": "bool",
          "name": "approved",
          "type": "bool"
        }
      ],
      "name": "ApprovalForAll",
      "type": "event"
    },
    {
      "anonymous": false,
      "inputs": [
        {
          "indexed": false,
          "internalType": "address",
          "name": "sender",
          "type": "address"
        },
        {
          "indexed": false,
          "internalType": "uint256",
          "name": "tokenId",
          "type": "uint256"
        },
        {
          "indexed": false,
          "internalType": "uint256",
          "name": "characterIndex",
          "type": "uint256"
        }
      ],
      "name": "CharacterNFTMinted",
      "type": "event"
    },
    {
      "anonymous": false,
      "inputs": [
        {
          "indexed": true,
          "internalType": "address",
          "name": "from",
          "type": "address"
        },
        {
          "indexed": true,
          "internalType": "address",
          "name": "to",
          "type": "address"
        },
        {
          "indexed": true,
          "internalType": "uint256",
          "name": "tokenId",
          "type": "uint256"
        }
      ],
      "name": "Transfer",
      "type": "event"
    },
    {
      "inputs": [
        {
          "internalType": "address",
          "name": "to",
          "type": "address"
        },
        {
          "internalType": "uint256",
          "name": "tokenId",
          "type": "uint256"
        }
      ],
      "name": "approve",
      "outputs": [],
      "stateMutability": "nonpayable",
      "type": "function"
    },
    {
      "inputs": [
        {
          "internalType": "address",
          "name": "owner",
          "type": "address"
        }
      ],
      "name": "balanceOf",
      "outputs": [
        {
          "internalType": "uint256",
          "name": "",
          "type": "uint256"
        }
      ],
      "stateMutability": "view",
      "type": "function"
    },
    {
      "inputs": [],
      "name": "checkIfUserHasNFT",
      "outputs": [
        {
          "components": [
            {
              "internalType": "uint256",
              "name": "characterIndex",
              "type": "uint256"
            },
            {
              "internalType": "string",
              "name": "name",
              "type": "string"
            },
            {
              "internalType": "string",
              "name": "imageURI",
              "type": "string"
            }
          ],
          "internalType": "struct Gaslessregalis.RegalisBoxes",
          "name": "",
          "type": "tuple"
        }
      ],
      "stateMutability": "view",
      "type": "function"
    },
    {
      "inputs": [],
      "name": "getAllDefaultCharacters",
      "outputs": [
        {
          "components": [
            {
              "internalType": "uint256",
              "name": "characterIndex",
              "type": "uint256"
            },
            {
              "internalType": "string",
              "name": "name",
              "type": "string"
            },
            {
              "internalType": "string",
              "name": "imageURI",
              "type": "string"
            }
          ],
          "internalType": "struct Gaslessregalis.RegalisBoxes[]",
          "name": "",
          "type": "tuple[]"
        }
      ],
      "stateMutability": "view",
      "type": "function"
    },
    {
      "inputs": [
        {
          "internalType": "uint256",
          "name": "tokenId",
          "type": "uint256"
        }
      ],
      "name": "getApproved",
      "outputs": [
        {
          "internalType": "address",
          "name": "",
          "type": "address"
        }
      ],
      "stateMutability": "view",
      "type": "function"
    },
    {
      "inputs": [],
      "name": "getRandomBox",
      "outputs": [
        {
          "internalType": "bytes32",
          "name": "",
          "type": "bytes32"
        }
      ],
      "stateMutability": "nonpayable",
      "type": "function"
    },
    {
      "inputs": [
        {
          "internalType": "address",
          "name": "owner",
          "type": "address"
        },
        {
          "internalType": "address",
          "name": "operator",
          "type": "address"
        }
      ],
      "name": "isApprovedForAll",
      "outputs": [
        {
          "internalType": "bool",
          "name": "",
          "type": "bool"
        }
      ],
      "stateMutability": "view",
      "type": "function"
    },
    {
      "inputs": [
        {
          "internalType": "address",
          "name": "forwarder",
          "type": "address"
        }
      ],
      "name": "isTrustedForwarder",
      "outputs": [
        {
          "internalType": "bool",
          "name": "",
          "type": "bool"
        }
      ],
      "stateMutability": "view",
      "type": "function"
    },
    {
      "inputs": [
        {
          "internalType": "uint256",
          "name": "_characterIndex",
          "type": "uint256"
        }
      ],
      "name": "mintCharacterNFT",
      "outputs": [],
      "stateMutability": "nonpayable",
      "type": "function"
    },
    {
      "inputs": [],
      "name": "name",
      "outputs": [
        {
          "internalType": "string",
          "name": "",
          "type": "string"
        }
      ],
      "stateMutability": "view",
      "type": "function"
    },
    {
      "inputs": [
        {
          "internalType": "uint256",
          "name": "",
          "type": "uint256"
        }
      ],
      "name": "nftHolderAttributes",
      "outputs": [
        {
          "internalType": "uint256",
          "name": "characterIndex",
          "type": "uint256"
        },
        {
          "internalType": "string",
          "name": "name",
          "type": "string"
        },
        {
          "internalType": "string",
          "name": "imageURI",
          "type": "string"
        }
      ],
      "stateMutability": "view",
      "type": "function"
    },
    {
      "inputs": [
        {
          "internalType": "address",
          "name": "",
          "type": "address"
        }
      ],
      "name": "nftHolders",
      "outputs": [
        {
          "internalType": "uint256",
          "name": "",
          "type": "uint256"
        }
      ],
      "stateMutability": "view",
      "type": "function"
    },
    {
      "inputs": [
        {
          "internalType": "uint256",
          "name": "tokenId",
          "type": "uint256"
        }
      ],
      "name": "ownerOf",
      "outputs": [
        {
          "internalType": "address",
          "name": "",
          "type": "address"
        }
      ],
      "stateMutability": "view",
      "type": "function"
    },
    {
      "inputs": [
        {
          "internalType": "bytes32",
          "name": "requestId",
          "type": "bytes32"
        },
        {
          "internalType": "uint256",
          "name": "randomness",
          "type": "uint256"
        }
      ],
      "name": "rawFulfillRandomness",
      "outputs": [],
      "stateMutability": "nonpayable",
      "type": "function"
    },
    {
      "inputs": [
        {
          "internalType": "bytes32",
          "name": "",
          "type": "bytes32"
        }
      ],
      "name": "requestToSender",
      "outputs": [
        {
          "internalType": "address",
          "name": "",
          "type": "address"
        }
      ],
      "stateMutability": "view",
      "type": "function"
    },
    {
      "inputs": [
        {
          "internalType": "address",
          "name": "from",
          "type": "address"
        },
        {
          "internalType": "address",
          "name": "to",
          "type": "address"
        },
        {
          "internalType": "uint256",
          "name": "tokenId",
          "type": "uint256"
        }
      ],
      "name": "safeTransferFrom",
      "outputs": [],
      "stateMutability": "nonpayable",
      "type": "function"
    },
    {
      "inputs": [
        {
          "internalType": "address",
          "name": "from",
          "type": "address"
        },
        {
          "internalType": "address",
          "name": "to",
          "type": "address"
        },
        {
          "internalType": "uint256",
          "name": "tokenId",
          "type": "uint256"
        },
        {
          "internalType": "bytes",
          "name": "_data",
          "type": "bytes"
        }
      ],
      "name": "safeTransferFrom",
      "outputs": [],
      "stateMutability": "nonpayable",
      "type": "function"
    },
    {
      "inputs": [
        {
          "internalType": "address",
          "name": "operator",
          "type": "address"
        },
        {
          "internalType": "bool",
          "name": "approved",
          "type": "bool"
        }
      ],
      "name": "setApprovalForAll",
      "outputs": [],
      "stateMutability": "nonpayable",
      "type": "function"
    },
    {
      "inputs": [
        {
          "internalType": "bytes4",
          "name": "interfaceId",
          "type": "bytes4"
        }
      ],
      "name": "supportsInterface",
      "outputs": [
        {
          "internalType": "bool",
          "name": "",
          "type": "bool"
        }
      ],
      "stateMutability": "view",
      "type": "function"
    },
    {
      "inputs": [],
      "name": "symbol",
      "outputs": [
        {
          "internalType": "string",
          "name": "",
          "type": "string"
        }
      ],
      "stateMutability": "view",
      "type": "function"
    },
    {
      "inputs": [
        {
          "internalType": "uint256",
          "name": "_tokenId",
          "type": "uint256"
        }
      ],
      "name": "tokenURI",
      "outputs": [
        {
          "internalType": "string",
          "name": "",
          "type": "string"
        }
      ],
      "stateMutability": "view",
      "type": "function"
    },
    {
      "inputs": [
        {
          "internalType": "address",
          "name": "from",
          "type": "address"
        },
        {
          "internalType": "address",
          "name": "to",
          "type": "address"
        },
        {
          "internalType": "uint256",
          "name": "tokenId",
          "type": "uint256"
        }
      ],
      "name": "transferFrom",
      "outputs": [],
      "stateMutability": "nonpayable",
      "type": "function"
    }
  ],
  "bytecode": "0x60c06040523480156200001157600080fd5b5060405162004fa838038062004fa88339818101604052810190620000379190620007e8565b8085856040518060400160405280600781526020017f526567616c6973000000000000000000000000000000000000000000000000008152506040518060400160405280600181526020017f52000000000000000000000000000000000000000000000000000000000000008152508160009080519060200190620000be929190620005ad565b508060019080519060200190620000d7929190620005ad565b5050508173ffffffffffffffffffffffffffffffffffffffff1660a08173ffffffffffffffffffffffffffffffffffffffff1660601b815250508073ffffffffffffffffffffffffffffffffffffffff1660808173ffffffffffffffffffffffffffffffffffffffff1660601b81525050505080600760006101000a81548173ffffffffffffffffffffffffffffffffffffffff021916908373ffffffffffffffffffffffffffffffffffffffff1602179055505082600a8190555081600b8190555060005b8751811015620004a057600c60405180606001604052808381526020018a8481518110620001f4577f4e487b7100000000000000000000000000000000000000000000000000000000600052603260045260246000fd5b602002602001015181526020018984815181106200023b577f4e487b7100000000000000000000000000000000000000000000000000000000600052603260045260246000fd5b6020026020010151815250908060018154018082558091505060019003906000526020600020906003020160009091909190915060008201518160000155602082015181600101908051906020019062000297929190620005ad565b506040820151816002019080519060200190620002b6929190620005ad565b5050506000600c8281548110620002f6577f4e487b7100000000000000000000000000000000000000000000000000000000600052603260045260246000fd5b9060005260206000209060030201604051806060016040529081600082015481526020016001820180546200032b9062000af3565b80601f0160208091040260200160405190810160405280929190818152602001828054620003599062000af3565b8015620003aa5780601f106200037e57610100808354040283529160200191620003aa565b820191906000526020600020905b8154815290600101906020018083116200038c57829003601f168201915b50505050508152602001600282018054620003c59062000af3565b80601f0160208091040260200160405190810160405280929190818152602001828054620003f39062000af3565b8015620004445780601f10620004185761010080835404028352916020019162000444565b820191906000526020600020905b8154815290600101906020018083116200042657829003601f168201915b50505050508152505090506200048860405180606001604052806023815260200162004f856023913982602001518360400151620004c560201b620018691760201c565b5060018162000498919062000a04565b90506200019d565b50620004b860096200056e60201b620019081760201c565b5050505050505062000c65565b62000569838383604051602401620004e09392919062000908565b6040516020818303038152906040527f2ced7cef000000000000000000000000000000000000000000000000000000007bffffffffffffffffffffffffffffffffffffffffffffffffffffffff19166020820180517bffffffffffffffffffffffffffffffffffffffffffffffffffffffff83818316178352505050506200058460201b60201c565b505050565b6001816000016000828254019250508190555050565b60008151905060006a636f6e736f6c652e6c6f679050602083016000808483855afa5050505050565b828054620005bb9062000af3565b90600052602060002090601f016020900481019282620005df57600085556200062b565b82601f10620005fa57805160ff19168380011785556200062b565b828001600101855582156200062b579182015b828111156200062a5782518255916020019190600101906200060d565b5b5090506200063a91906200063e565b5090565b5b80821115620006595760008160009055506001016200063f565b5090565b6000620006746200066e8462000983565b6200095a565b905080838252602082019050828560208602820111156200069457600080fd5b60005b85811015620006e357815167ffffffffffffffff811115620006b857600080fd5b808601620006c78982620007a4565b8552602085019450602084019350505060018101905062000697565b5050509392505050565b600062000704620006fe84620009b2565b6200095a565b9050828152602081018484840111156200071d57600080fd5b6200072a84828562000abd565b509392505050565b600081519050620007438162000bfd565b92915050565b600082601f8301126200075b57600080fd5b81516200076d8482602086016200065d565b91505092915050565b600081519050620007878162000c17565b92915050565b6000815190506200079e8162000c31565b92915050565b600082601f830112620007b657600080fd5b8151620007c8848260208601620006ed565b91505092915050565b600081519050620007e28162000c4b565b92915050565b600080600080600080600060e0888a0312156200080457600080fd5b600088015167ffffffffffffffff8111156200081f57600080fd5b6200082d8a828b0162000749565b975050602088015167ffffffffffffffff8111156200084b57600080fd5b620008598a828b0162000749565b96505060406200086c8a828b0162000732565b95505060606200087f8a828b0162000732565b9450506080620008928a828b0162000776565b93505060a0620008a58a828b01620007d1565b92505060c0620008b88a828b016200078d565b91505092959891949750929550565b6000620008d482620009e8565b620008e08185620009f3565b9350620008f281856020860162000abd565b620008fd8162000bec565b840191505092915050565b60006060820190508181036000830152620009248186620008c7565b905081810360208301526200093a8185620008c7565b90508181036040830152620009508184620008c7565b9050949350505050565b60006200096662000979565b905062000974828262000b29565b919050565b6000604051905090565b600067ffffffffffffffff821115620009a157620009a062000bbd565b5b602082029050602081019050919050565b600067ffffffffffffffff821115620009d057620009cf62000bbd565b5b620009db8262000bec565b9050602081019050919050565b600081519050919050565b600082825260208201905092915050565b600062000a118262000ab3565b915062000a1e8362000ab3565b9250827fffffffffffffffffffffffffffffffffffffffffffffffffffffffffffffffff0382111562000a565762000a5562000b5f565b5b828201905092915050565b600062000a6e8262000a93565b9050919050565b6000819050919050565b600062000a8c8262000a61565b9050919050565b600073ffffffffffffffffffffffffffffffffffffffff82169050919050565b6000819050919050565b60005b8381101562000add57808201518184015260208101905062000ac0565b8381111562000aed576000848401525b50505050565b6000600282049050600182168062000b0c57607f821691505b6020821081141562000b235762000b2262000b8e565b5b50919050565b62000b348262000bec565b810181811067ffffffffffffffff8211171562000b565762000b5562000bbd565b5b80604052505050565b7f4e487b7100000000000000000000000000000000000000000000000000000000600052601160045260246000fd5b7f4e487b7100000000000000000000000000000000000000000000000000000000600052602260045260246000fd5b7f4e487b7100000000000000000000000000000000000000000000000000000000600052604160045260246000fd5b6000601f19601f8301169050919050565b62000c088162000a61565b811462000c1457600080fd5b50565b62000c228162000a75565b811462000c2e57600080fd5b50565b62000c3c8162000a7f565b811462000c4857600080fd5b50565b62000c568162000ab3565b811462000c6257600080fd5b50565b60805160601c60a05160601c6142e662000c9f60003960008181610b860152611e36015260008181610a2a0152611dfa01526142e66000f3fe608060405234801561001057600080fd5b50600436106101425760003560e01c806385ccd9c1116100b8578063b88d4fde1161007c578063b88d4fde146103af578063b953084e146103cb578063c87b56dd146103e9578063c8cf27f414610419578063e985e9c514610437578063f8b81ef71461046757610142565b806385ccd9c11461030957806394985ddd1461032757806395d89b411461034357806398da4c9514610361578063a22cb4651461039357610142565b8063274ac0c31161010a578063274ac0c3146101fd57806342842e0e1461022d578063572b6c05146102495780636352211e1461027957806370a08231146102a95780637df124a1146102d957610142565b806301ffc9a71461014757806306fdde0314610177578063081812fc14610195578063095ea7b3146101c557806323b872dd146101e1575b600080fd5b610161600480360381019061015c9190612cdd565b610483565b60405161016e9190613472565b60405180910390f35b61017f610565565b60405161018c9190613516565b60405180910390f35b6101af60048036038101906101aa9190612d2f565b6105f7565b6040516101bc9190613374565b60405180910390f35b6101df60048036038101906101da9190612c13565b61067c565b005b6101fb60048036038101906101f69190612b0d565b610794565b005b61021760048036038101906102129190612c78565b6107f4565b6040516102249190613374565b60405180910390f35b61024760048036038101906102429190612b0d565b610827565b005b610263600480360381019061025e9190612aa8565b610847565b6040516102709190613472565b60405180910390f35b610293600480360381019061028e9190612d2f565b6108a1565b6040516102a09190613374565b60405180910390f35b6102c360048036038101906102be9190612aa8565b610953565b6040516102d091906137c4565b60405180910390f35b6102f360048036038101906102ee9190612aa8565b610a0b565b60405161030091906137c4565b60405180910390f35b610311610a23565b60405161031e919061348d565b60405180910390f35b610341600480360381019061033c9190612ca1565b610b84565b005b61034b610c20565b6040516103589190613516565b60405180910390f35b61037b60048036038101906103769190612d2f565b610cb2565b60405161038a939291906137df565b60405180910390f35b6103ad60048036038101906103a89190612bd7565b610dec565b005b6103c960048036038101906103c49190612b5c565b610f6d565b005b6103d3610fcf565b6040516103e09190613450565b60405180910390f35b61040360048036038101906103fe9190612d2f565b61115c565b6040516104109190613516565b60405180910390f35b61042161131d565b60405161042e91906137a2565b60405180910390f35b610451600480360381019061044c9190612ad1565b6114e5565b60405161045e9190613472565b60405180910390f35b610481600480360381019061047c9190612d2f565b611579565b005b60007f80ac58cd000000000000000000000000000000000000000000000000000000007bffffffffffffffffffffffffffffffffffffffffffffffffffffffff1916827bffffffffffffffffffffffffffffffffffffffffffffffffffffffff1916148061054e57507f5b5e139f000000000000000000000000000000000000000000000000000000007bffffffffffffffffffffffffffffffffffffffffffffffffffffffff1916827bffffffffffffffffffffffffffffffffffffffffffffffffffffffff1916145b8061055e575061055d8261191e565b5b9050919050565b60606000805461057490613adc565b80601f01602080910402602001604051908101604052809291908181526020018280546105a090613adc565b80156105ed5780601f106105c2576101008083540402835291602001916105ed565b820191906000526020600020905b8154815290600101906020018083116105d057829003601f168201915b5050505050905090565b600061060282611988565b610641576040517f08c379a000000000000000000000000000000000000000000000000000000000815260040161063890613702565b60405180910390fd5b6004600083815260200190815260200160002060009054906101000a900473ffffffffffffffffffffffffffffffffffffffff169050919050565b6000610687826108a1565b90508073ffffffffffffffffffffffffffffffffffffffff168373ffffffffffffffffffffffffffffffffffffffff1614156106f8576040517f08c379a00000000000000000000000000000000000000000000000000000000081526004016106ef90613762565b60405180910390fd5b8073ffffffffffffffffffffffffffffffffffffffff166107176119f4565b73ffffffffffffffffffffffffffffffffffffffff1614806107465750610745816107406119f4565b6114e5565b5b610785576040517f08c379a000000000000000000000000000000000000000000000000000000000815260040161077c90613682565b60405180910390fd5b61078f8383611a03565b505050565b6107a561079f6119f4565b82611abc565b6107e4576040517f08c379a00000000000000000000000000000000000000000000000000000000081526004016107db90613782565b60405180910390fd5b6107ef838383611b9a565b505050565b60086020528060005260406000206000915054906101000a900473ffffffffffffffffffffffffffffffffffffffff1681565b61084283838360405180602001604052806000815250610f6d565b505050565b6000600760009054906101000a900473ffffffffffffffffffffffffffffffffffffffff1673ffffffffffffffffffffffffffffffffffffffff168273ffffffffffffffffffffffffffffffffffffffff16149050919050565b6000806002600084815260200190815260200160002060009054906101000a900473ffffffffffffffffffffffffffffffffffffffff169050600073ffffffffffffffffffffffffffffffffffffffff168173ffffffffffffffffffffffffffffffffffffffff16141561094a576040517f08c379a0000000000000000000000000000000000000000000000000000000008152600401610941906136c2565b60405180910390fd5b80915050919050565b60008073ffffffffffffffffffffffffffffffffffffffff168273ffffffffffffffffffffffffffffffffffffffff1614156109c4576040517f08c379a00000000000000000000000000000000000000000000000000000000081526004016109bb906136a2565b60405180910390fd5b600360008373ffffffffffffffffffffffffffffffffffffffff1673ffffffffffffffffffffffffffffffffffffffff168152602001908152602001600020549050919050565b600e6020528060005260406000206000915090505481565b6000600b547f000000000000000000000000000000000000000000000000000000000000000073ffffffffffffffffffffffffffffffffffffffff166370a08231306040518263ffffffff1660e01b8152600401610a819190613374565b60206040518083038186803b158015610a9957600080fd5b505afa158015610aad573d6000803e3d6000fd5b505050506040513d601f19601f82011682018060405250810190610ad19190612d58565b1015610b12576040517f08c379a0000000000000000000000000000000000000000000000000000000008152600401610b0990613642565b60405180910390fd5b6000610b22600a54600b54611df6565b9050610b2c6119f4565b6008600083815260200190815260200160002060006101000a81548173ffffffffffffffffffffffffffffffffffffffff021916908373ffffffffffffffffffffffffffffffffffffffff1602179055508091505090565b7f000000000000000000000000000000000000000000000000000000000000000073ffffffffffffffffffffffffffffffffffffffff163373ffffffffffffffffffffffffffffffffffffffff1614610c12576040517f08c379a0000000000000000000000000000000000000000000000000000000008152600401610c0990613742565b60405180910390fd5b610c1c8282611f58565b5050565b606060018054610c2f90613adc565b80601f0160208091040260200160405190810160405280929190818152602001828054610c5b90613adc565b8015610ca85780601f10610c7d57610100808354040283529160200191610ca8565b820191906000526020600020905b815481529060010190602001808311610c8b57829003601f168201915b5050505050905090565b600d602052806000526040600020600091509050806000015490806001018054610cdb90613adc565b80601f0160208091040260200160405190810160405280929190818152602001828054610d0790613adc565b8015610d545780601f10610d2957610100808354040283529160200191610d54565b820191906000526020600020905b815481529060010190602001808311610d3757829003601f168201915b505050505090806002018054610d6990613adc565b80601f0160208091040260200160405190810160405280929190818152602001828054610d9590613adc565b8015610de25780601f10610db757610100808354040283529160200191610de2565b820191906000526020600020905b815481529060010190602001808311610dc557829003601f168201915b5050505050905083565b610df46119f4565b73ffffffffffffffffffffffffffffffffffffffff168273ffffffffffffffffffffffffffffffffffffffff161415610e62576040517f08c379a0000000000000000000000000000000000000000000000000000000008152600401610e5990613622565b60405180910390fd5b8060056000610e6f6119f4565b73ffffffffffffffffffffffffffffffffffffffff1673ffffffffffffffffffffffffffffffffffffffff16815260200190815260200160002060008473ffffffffffffffffffffffffffffffffffffffff1673ffffffffffffffffffffffffffffffffffffffff16815260200190815260200160002060006101000a81548160ff0219169083151502179055508173ffffffffffffffffffffffffffffffffffffffff16610f1c6119f4565b73ffffffffffffffffffffffffffffffffffffffff167f17307eab39ab6107e8899845ad3d59bd9653f200f220920489ca2b5937696c3183604051610f619190613472565b60405180910390a35050565b610f7e610f786119f4565b83611abc565b610fbd576040517f08c379a0000000000000000000000000000000000000000000000000000000008152600401610fb490613782565b60405180910390fd5b610fc984848484611fab565b50505050565b6060600c805480602002602001604051908101604052809291908181526020016000905b8282101561115357838290600052602060002090600302016040518060600160405290816000820154815260200160018201805461103090613adc565b80601f016020809104026020016040519081016040528092919081815260200182805461105c90613adc565b80156110a95780601f1061107e576101008083540402835291602001916110a9565b820191906000526020600020905b81548152906001019060200180831161108c57829003601f168201915b505050505081526020016002820180546110c290613adc565b80601f01602080910402602001604051908101604052809291908181526020018280546110ee90613adc565b801561113b5780601f106111105761010080835404028352916020019161113b565b820191906000526020600020905b81548152906001019060200180831161111e57829003601f168201915b50505050508152505081526020019060010190610ff3565b50505050905090565b60606000600d60008481526020019081526020016000206040518060600160405290816000820154815260200160018201805461119890613adc565b80601f01602080910402602001604051908101604052809291908181526020018280546111c490613adc565b80156112115780601f106111e657610100808354040283529160200191611211565b820191906000526020600020905b8154815290600101906020018083116111f457829003601f168201915b5050505050815260200160028201805461122a90613adc565b80601f016020809104026020016040519081016040528092919081815260200182805461125690613adc565b80156112a35780601f10611278576101008083540402835291602001916112a3565b820191906000526020600020905b81548152906001019060200180831161128657829003601f168201915b505050505081525050905060006112ec82602001516112c186612007565b84604001516040516020016112d8939291906132f5565b6040516020818303038152906040526121b4565b90506000816040516020016113019190613352565b6040516020818303038152906040529050809350505050919050565b6113256128d4565b600061132f6119f4565b90506000600e60008373ffffffffffffffffffffffffffffffffffffffff1673ffffffffffffffffffffffffffffffffffffffff16815260200190815260200160002054905060008111156114d357600d6000828152602001908152602001600020604051806060016040529081600082015481526020016001820180546113b690613adc565b80601f01602080910402602001604051908101604052809291908181526020018280546113e290613adc565b801561142f5780601f106114045761010080835404028352916020019161142f565b820191906000526020600020905b81548152906001019060200180831161141257829003601f168201915b5050505050815260200160028201805461144890613adc565b80601f016020809104026020016040519081016040528092919081815260200182805461147490613adc565b80156114c15780601f10611496576101008083540402835291602001916114c1565b820191906000526020600020905b8154815290600101906020018083116114a457829003601f168201915b505050505081525050925050506114e2565b6114db6128d4565b8093505050505b90565b6000600560008473ffffffffffffffffffffffffffffffffffffffff1673ffffffffffffffffffffffffffffffffffffffff16815260200190815260200160002060008373ffffffffffffffffffffffffffffffffffffffff1673ffffffffffffffffffffffffffffffffffffffff16815260200190815260200160002060009054906101000a900460ff16905092915050565b6000611585600961235f565b905060006115916119f4565b905061159d818361236d565b6040518060600160405280848152602001600c85815481106115e8577f4e487b7100000000000000000000000000000000000000000000000000000000600052603260045260246000fd5b9060005260206000209060030201600101805461160490613adc565b80601f016020809104026020016040519081016040528092919081815260200182805461163090613adc565b801561167d5780601f106116525761010080835404028352916020019161167d565b820191906000526020600020905b81548152906001019060200180831161166057829003601f168201915b50505050508152602001600c85815481106116c1577f4e487b7100000000000000000000000000000000000000000000000000000000600052603260045260246000fd5b906000526020600020906003020160020180546116dd90613adc565b80601f016020809104026020016040519081016040528092919081815260200182805461170990613adc565b80156117565780601f1061172b57610100808354040283529160200191611756565b820191906000526020600020905b81548152906001019060200180831161173957829003601f168201915b5050505050815250600d60008481526020019081526020016000206000820151816000015560208201518160010190805190602001906117979291906128f5565b5060408201518160020190805190602001906117b49291906128f5565b509050506117db60405180608001604052806041815260200161427060419139838561238b565b81600e60008373ffffffffffffffffffffffffffffffffffffffff1673ffffffffffffffffffffffffffffffffffffffff168152602001908152602001600020819055506118296009611908565b7f4bc303fd457a97b4691b9af582ce71868a3d258638c8d4f8c60988a0f0bfb8cd81838560405161185c93929190613419565b60405180910390a1505050565b61190383838360405160240161188193929190613538565b6040516020818303038152906040527f2ced7cef000000000000000000000000000000000000000000000000000000007bffffffffffffffffffffffffffffffffffffffffffffffffffffffff19166020820180517bffffffffffffffffffffffffffffffffffffffffffffffffffffffff838183161783525050505061242a565b505050565b6001816000016000828254019250508190555050565b60007f01ffc9a7000000000000000000000000000000000000000000000000000000007bffffffffffffffffffffffffffffffffffffffffffffffffffffffff1916827bffffffffffffffffffffffffffffffffffffffffffffffffffffffff1916149050919050565b60008073ffffffffffffffffffffffffffffffffffffffff166002600084815260200190815260200160002060009054906101000a900473ffffffffffffffffffffffffffffffffffffffff1673ffffffffffffffffffffffffffffffffffffffff1614159050919050565b60006119fe612453565b905090565b816004600083815260200190815260200160002060006101000a81548173ffffffffffffffffffffffffffffffffffffffff021916908373ffffffffffffffffffffffffffffffffffffffff160217905550808273ffffffffffffffffffffffffffffffffffffffff16611a76836108a1565b73ffffffffffffffffffffffffffffffffffffffff167f8c5be1e5ebec7d5bd14f71427d1e84f3dd0314c0f7b2291e5b200ac8c7c3b92560405160405180910390a45050565b6000611ac782611988565b611b06576040517f08c379a0000000000000000000000000000000000000000000000000000000008152600401611afd90613662565b60405180910390fd5b6000611b11836108a1565b90508073ffffffffffffffffffffffffffffffffffffffff168473ffffffffffffffffffffffffffffffffffffffff161480611b8057508373ffffffffffffffffffffffffffffffffffffffff16611b68846105f7565b73ffffffffffffffffffffffffffffffffffffffff16145b80611b915750611b9081856114e5565b5b91505092915050565b8273ffffffffffffffffffffffffffffffffffffffff16611bba826108a1565b73ffffffffffffffffffffffffffffffffffffffff1614611c10576040517f08c379a0000000000000000000000000000000000000000000000000000000008152600401611c0790613722565b60405180910390fd5b600073ffffffffffffffffffffffffffffffffffffffff168273ffffffffffffffffffffffffffffffffffffffff161415611c80576040517f08c379a0000000000000000000000000000000000000000000000000000000008152600401611c7790613602565b60405180910390fd5b611c8b838383612485565b611c96600082611a03565b6001600360008573ffffffffffffffffffffffffffffffffffffffff1673ffffffffffffffffffffffffffffffffffffffff1681526020019081526020016000206000828254611ce691906139e8565b925050819055506001600360008473ffffffffffffffffffffffffffffffffffffffff1673ffffffffffffffffffffffffffffffffffffffff1681526020019081526020016000206000828254611d3d9190613907565b92505081905550816002600083815260200190815260200160002060006101000a81548173ffffffffffffffffffffffffffffffffffffffff021916908373ffffffffffffffffffffffffffffffffffffffff160217905550808273ffffffffffffffffffffffffffffffffffffffff168473ffffffffffffffffffffffffffffffffffffffff167fddf252ad1be2c89b69c2b068fc378daa952ba7f163c4a11628f55a4df523b3ef60405160405180910390a4505050565b60007f000000000000000000000000000000000000000000000000000000000000000073ffffffffffffffffffffffffffffffffffffffff16634000aea07f000000000000000000000000000000000000000000000000000000000000000084866000604051602001611e6a9291906134a8565b6040516020818303038152906040526040518463ffffffff1660e01b8152600401611e97939291906133db565b602060405180830381600087803b158015611eb157600080fd5b505af1158015611ec5573d6000803e3d6000fd5b505050506040513d601f19601f82011682018060405250810190611ee99190612c4f565b506000611f0c84600030600660008981526020019081526020016000205461248a565b905060016006600086815260200190815260200160002054611f2e9190613907565b6006600086815260200190815260200160002081905550611f4f84826124c6565b91505092915050565b60006008600084815260200190815260200160002060009054906101000a900473ffffffffffffffffffffffffffffffffffffffff1690506000600c8054905083611fa39190613b9c565b905050505050565b611fb6848484611b9a565b611fc2848484846124f9565b612001576040517f08c379a0000000000000000000000000000000000000000000000000000000008152600401611ff8906135c2565b60405180910390fd5b50505050565b6060600082141561204f576040518060400160405280600181526020017f300000000000000000000000000000000000000000000000000000000000000081525090506121af565b600082905060005b6000821461208157808061206a90613b3f565b915050600a8261207a919061395d565b9150612057565b60008167ffffffffffffffff8111156120c3577f4e487b7100000000000000000000000000000000000000000000000000000000600052604160045260246000fd5b6040519080825280601f01601f1916602001820160405280156120f55781602001600182028036833780820191505090505b5090505b600085146121a85760018261210e91906139e8565b9150600a8561211d9190613b9c565b60306121299190613907565b60f81b818381518110612165577f4e487b7100000000000000000000000000000000000000000000000000000000600052603260045260246000fd5b60200101907effffffffffffffffffffffffffffffffffffffffffffffffffffffffffffff1916908160001a905350600a856121a1919061395d565b94506120f9565b8093505050505b919050565b60606000825114156121d75760405180602001604052806000815250905061235a565b600060405180606001604052806040815260200161423060409139905060006003600285516122069190613907565b612210919061395d565b600461221c919061398e565b9050600060208261222d9190613907565b67ffffffffffffffff81111561226c577f4e487b7100000000000000000000000000000000000000000000000000000000600052604160045260246000fd5b6040519080825280601f01601f19166020018201604052801561229e5781602001600182028036833780820191505090505b509050818152600183018586518101602084015b81831015612319576003830192508251603f8160121c1685015160f81b8252600182019150603f81600c1c1685015160f81b8252600182019150603f8160061c1685015160f81b8252600182019150603f811685015160f81b8252600182019150506122b2565b60038951066001811461233357600281146123435761234e565b613d3d60f01b600283035261234e565b603d60f81b60018303525b50505050508093505050505b919050565b600081600001549050919050565b612387828260405180602001604052806000815250612690565b5050565b6124258383836040516024016123a393929190613584565b6040516020818303038152906040527f969cdd03000000000000000000000000000000000000000000000000000000007bffffffffffffffffffffffffffffffffffffffffffffffffffffffff19166020820180517bffffffffffffffffffffffffffffffffffffffffffffffffffffffff838183161783525050505061242a565b505050565b60008151905060006a636f6e736f6c652e6c6f679050602083016000808483855afa5050505050565b600061245e33610847565b1561247257601436033560601c9050612481565b61247a6126eb565b9050612482565b5b90565b505050565b6000848484846040516020016124a394939291906134d1565b6040516020818303038152906040528051906020012060001c9050949350505050565b600082826040516020016124db9291906132c9565b60405160208183030381529060405280519060200120905092915050565b600061251a8473ffffffffffffffffffffffffffffffffffffffff166126f3565b15612683578373ffffffffffffffffffffffffffffffffffffffff1663150b7a026125436119f4565b8786866040518563ffffffff1660e01b8152600401612565949392919061338f565b602060405180830381600087803b15801561257f57600080fd5b505af19250505080156125b057506040513d601f19601f820116820180604052508101906125ad9190612d06565b60015b612633573d80600081146125e0576040519150601f19603f3d011682016040523d82523d6000602084013e6125e5565b606091505b5060008151141561262b576040517f08c379a0000000000000000000000000000000000000000000000000000000008152600401612622906135c2565b60405180910390fd5b805181602001fd5b63150b7a0260e01b7bffffffffffffffffffffffffffffffffffffffffffffffffffffffff1916817bffffffffffffffffffffffffffffffffffffffffffffffffffffffff191614915050612688565b600190505b949350505050565b61269a8383612706565b6126a760008484846124f9565b6126e6576040517f08c379a00000000000000000000000000000000000000000000000000000000081526004016126dd906135c2565b60405180910390fd5b505050565b600033905090565b600080823b905060008111915050919050565b600073ffffffffffffffffffffffffffffffffffffffff168273ffffffffffffffffffffffffffffffffffffffff161415612776576040517f08c379a000000000000000000000000000000000000000000000000000000000815260040161276d906136e2565b60405180910390fd5b61277f81611988565b156127bf576040517f08c379a00000000000000000000000000000000000000000000000000000000081526004016127b6906135e2565b60405180910390fd5b6127cb60008383612485565b6001600360008473ffffffffffffffffffffffffffffffffffffffff1673ffffffffffffffffffffffffffffffffffffffff168152602001908152602001600020600082825461281b9190613907565b92505081905550816002600083815260200190815260200160002060006101000a81548173ffffffffffffffffffffffffffffffffffffffff021916908373ffffffffffffffffffffffffffffffffffffffff160217905550808273ffffffffffffffffffffffffffffffffffffffff16600073ffffffffffffffffffffffffffffffffffffffff167fddf252ad1be2c89b69c2b068fc378daa952ba7f163c4a11628f55a4df523b3ef60405160405180910390a45050565b60405180606001604052806000815260200160608152602001606081525090565b82805461290190613adc565b90600052602060002090601f016020900481019282612923576000855561296a565b82601f1061293c57805160ff191683800117855561296a565b8280016001018555821561296a579182015b8281111561296957825182559160200191906001019061294e565b5b509050612977919061297b565b5090565b5b8082111561299457600081600090555060010161297c565b5090565b60006129ab6129a684613849565b613824565b9050828152602081018484840111156129c357600080fd5b6129ce848285613a9a565b509392505050565b6000813590506129e5816141bc565b92915050565b6000813590506129fa816141d3565b92915050565b600081519050612a0f816141d3565b92915050565b600081359050612a24816141ea565b92915050565b600081359050612a3981614201565b92915050565b600081519050612a4e81614201565b92915050565b600082601f830112612a6557600080fd5b8135612a75848260208601612998565b91505092915050565b600081359050612a8d81614218565b92915050565b600081519050612aa281614218565b92915050565b600060208284031215612aba57600080fd5b6000612ac8848285016129d6565b91505092915050565b60008060408385031215612ae457600080fd5b6000612af2858286016129d6565b9250506020612b03858286016129d6565b9150509250929050565b600080600060608486031215612b2257600080fd5b6000612b30868287016129d6565b9350506020612b41868287016129d6565b9250506040612b5286828701612a7e565b9150509250925092565b60008060008060808587031215612b7257600080fd5b6000612b80878288016129d6565b9450506020612b91878288016129d6565b9350506040612ba287828801612a7e565b925050606085013567ffffffffffffffff811115612bbf57600080fd5b612bcb87828801612a54565b91505092959194509250565b60008060408385031215612bea57600080fd5b6000612bf8858286016129d6565b9250506020612c09858286016129eb565b9150509250929050565b60008060408385031215612c2657600080fd5b6000612c34858286016129d6565b9250506020612c4585828601612a7e565b9150509250929050565b600060208284031215612c6157600080fd5b6000612c6f84828501612a00565b91505092915050565b600060208284031215612c8a57600080fd5b6000612c9884828501612a15565b91505092915050565b60008060408385031215612cb457600080fd5b6000612cc285828601612a15565b9250506020612cd385828601612a7e565b9150509250929050565b600060208284031215612cef57600080fd5b6000612cfd84828501612a2a565b91505092915050565b600060208284031215612d1857600080fd5b6000612d2684828501612a3f565b91505092915050565b600060208284031215612d4157600080fd5b6000612d4f84828501612a7e565b91505092915050565b600060208284031215612d6a57600080fd5b6000612d7884828501612a93565b91505092915050565b6000612d8d83836131e6565b905092915050565b612d9e81613a1c565b82525050565b6000612daf8261388a565b612db981856138b8565b935083602082028501612dcb8561387a565b8060005b85811015612e075784840389528151612de88582612d81565b9450612df3836138ab565b925060208a01995050600181019050612dcf565b50829750879550505050505092915050565b612e2281613a2e565b82525050565b612e3181613a3a565b82525050565b612e48612e4382613a3a565b613b88565b82525050565b6000612e5982613895565b612e6381856138c9565b9350612e73818560208601613aa9565b612e7c81613c89565b840191505092915050565b6000612e92826138a0565b612e9c81856138da565b9350612eac818560208601613aa9565b612eb581613c89565b840191505092915050565b6000612ecb826138a0565b612ed581856138eb565b9350612ee5818560208601613aa9565b612eee81613c89565b840191505092915050565b6000612f04826138a0565b612f0e81856138fc565b9350612f1e818560208601613aa9565b80840191505092915050565b6000612f37600b836138fc565b9150612f4282613c9a565b600b82019050919050565b6000612f5a6032836138eb565b9150612f6582613cc3565b604082019050919050565b6000612f7d601c836138eb565b9150612f8882613d12565b602082019050919050565b6000612fa06024836138eb565b9150612fab82613d3b565b604082019050919050565b6000612fc36019836138eb565b9150612fce82613d8a565b602082019050919050565b6000612fe6602b836138eb565b9150612ff182613db3565b604082019050919050565b6000613009602c836138eb565b915061301482613e02565b604082019050919050565b600061302c6038836138eb565b915061303782613e51565b604082019050919050565b600061304f602a836138eb565b915061305a82613ea0565b604082019050919050565b60006130726029836138eb565b915061307d82613eef565b604082019050919050565b6000613095605b836138fc565b91506130a082613f3e565b605b82019050919050565b60006130b86002836138fc565b91506130c382613fb3565b600282019050919050565b60006130db6020836138eb565b91506130e682613fdc565b602082019050919050565b60006130fe602c836138eb565b915061310982614005565b604082019050919050565b60006131216029836138eb565b915061312c82614054565b604082019050919050565b6000613144600a836138fc565b915061314f826140a3565b600a82019050919050565b6000613167601f836138eb565b9150613172826140cc565b602082019050919050565b600061318a6021836138eb565b9150613195826140f5565b604082019050919050565b60006131ad601d836138fc565b91506131b882614144565b601d82019050919050565b60006131d06031836138eb565b91506131db8261416d565b604082019050919050565b60006060830160008301516131fe6000860182613294565b50602083015184820360208601526132168282612e87565b915050604083015184820360408601526132308282612e87565b9150508091505092915050565b60006060830160008301516132556000860182613294565b506020830151848203602086015261326d8282612e87565b915050604083015184820360408601526132878282612e87565b9150508091505092915050565b61329d81613a90565b82525050565b6132ac81613a90565b82525050565b6132c36132be82613a90565b613b92565b82525050565b60006132d58285612e37565b6020820191506132e582846132b2565b6020820191508190509392505050565b600061330082613137565b915061330c8286612ef9565b915061331782612f2a565b91506133238285612ef9565b915061332e82613088565b915061333a8284612ef9565b9150613345826130ab565b9150819050949350505050565b600061335d826131a0565b91506133698284612ef9565b915081905092915050565b60006020820190506133896000830184612d95565b92915050565b60006080820190506133a46000830187612d95565b6133b16020830186612d95565b6133be60408301856132a3565b81810360608301526133d08184612e4e565b905095945050505050565b60006060820190506133f06000830186612d95565b6133fd60208301856132a3565b818103604083015261340f8184612e4e565b9050949350505050565b600060608201905061342e6000830186612d95565b61343b60208301856132a3565b61344860408301846132a3565b949350505050565b6000602082019050818103600083015261346a8184612da4565b905092915050565b60006020820190506134876000830184612e19565b92915050565b60006020820190506134a26000830184612e28565b92915050565b60006040820190506134bd6000830185612e28565b6134ca60208301846132a3565b9392505050565b60006080820190506134e66000830187612e28565b6134f360208301866132a3565b6135006040830185612d95565b61350d60608301846132a3565b95945050505050565b600060208201905081810360008301526135308184612ec0565b905092915050565b600060608201905081810360008301526135528186612ec0565b905081810360208301526135668185612ec0565b9050818103604083015261357a8184612ec0565b9050949350505050565b6000606082019050818103600083015261359e8186612ec0565b90506135ad60208301856132a3565b6135ba60408301846132a3565b949350505050565b600060208201905081810360008301526135db81612f4d565b9050919050565b600060208201905081810360008301526135fb81612f70565b9050919050565b6000602082019050818103600083015261361b81612f93565b9050919050565b6000602082019050818103600083015261363b81612fb6565b9050919050565b6000602082019050818103600083015261365b81612fd9565b9050919050565b6000602082019050818103600083015261367b81612ffc565b9050919050565b6000602082019050818103600083015261369b8161301f565b9050919050565b600060208201905081810360008301526136bb81613042565b9050919050565b600060208201905081810360008301526136db81613065565b9050919050565b600060208201905081810360008301526136fb816130ce565b9050919050565b6000602082019050818103600083015261371b816130f1565b9050919050565b6000602082019050818103600083015261373b81613114565b9050919050565b6000602082019050818103600083015261375b8161315a565b9050919050565b6000602082019050818103600083015261377b8161317d565b9050919050565b6000602082019050818103600083015261379b816131c3565b9050919050565b600060208201905081810360008301526137bc818461323d565b905092915050565b60006020820190506137d960008301846132a3565b92915050565b60006060820190506137f460008301866132a3565b81810360208301526138068185612ec0565b9050818103604083015261381a8184612ec0565b9050949350505050565b600061382e61383f565b905061383a8282613b0e565b919050565b6000604051905090565b600067ffffffffffffffff82111561386457613863613c5a565b5b61386d82613c89565b9050602081019050919050565b6000819050602082019050919050565b600081519050919050565b600081519050919050565b600081519050919050565b6000602082019050919050565b600082825260208201905092915050565b600082825260208201905092915050565b600082825260208201905092915050565b600082825260208201905092915050565b600081905092915050565b600061391282613a90565b915061391d83613a90565b9250827fffffffffffffffffffffffffffffffffffffffffffffffffffffffffffffffff0382111561395257613951613bcd565b5b828201905092915050565b600061396882613a90565b915061397383613a90565b92508261398357613982613bfc565b5b828204905092915050565b600061399982613a90565b91506139a483613a90565b9250817fffffffffffffffffffffffffffffffffffffffffffffffffffffffffffffffff04831182151516156139dd576139dc613bcd565b5b828202905092915050565b60006139f382613a90565b91506139fe83613a90565b925082821015613a1157613a10613bcd565b5b828203905092915050565b6000613a2782613a70565b9050919050565b60008115159050919050565b6000819050919050565b60007fffffffff0000000000000000000000000000000000000000000000000000000082169050919050565b600073ffffffffffffffffffffffffffffffffffffffff82169050919050565b6000819050919050565b82818337600083830152505050565b60005b83811015613ac7578082015181840152602081019050613aac565b83811115613ad6576000848401525b50505050565b60006002820490506001821680613af457607f821691505b60208210811415613b0857613b07613c2b565b5b50919050565b613b1782613c89565b810181811067ffffffffffffffff82111715613b3657613b35613c5a565b5b80604052505050565b6000613b4a82613a90565b91507fffffffffffffffffffffffffffffffffffffffffffffffffffffffffffffffff821415613b7d57613b7c613bcd565b5b600182019050919050565b6000819050919050565b6000819050919050565b6000613ba782613a90565b9150613bb283613a90565b925082613bc257613bc1613bfc565b5b828206905092915050565b7f4e487b7100000000000000000000000000000000000000000000000000000000600052601160045260246000fd5b7f4e487b7100000000000000000000000000000000000000000000000000000000600052601260045260246000fd5b7f4e487b7100000000000000000000000000000000000000000000000000000000600052602260045260246000fd5b7f4e487b7100000000000000000000000000000000000000000000000000000000600052604160045260246000fd5b6000601f19601f8301169050919050565b7f202d2d204e465420233a20000000000000000000000000000000000000000000600082015250565b7f4552433732313a207472616e7366657220746f206e6f6e20455243373231526560008201527f63656976657220696d706c656d656e7465720000000000000000000000000000602082015250565b7f4552433732313a20746f6b656e20616c7265616479206d696e74656400000000600082015250565b7f4552433732313a207472616e7366657220746f20746865207a65726f2061646460008201527f7265737300000000000000000000000000000000000000000000000000000000602082015250565b7f4552433732313a20617070726f766520746f2063616c6c657200000000000000600082015250565b7f4e6f7420656e6f756768204c494e4b202d2066696c6c20636f6e74726163742060008201527f7769746820666175636574000000000000000000000000000000000000000000602082015250565b7f4552433732313a206f70657261746f7220717565727920666f72206e6f6e657860008201527f697374656e7420746f6b656e0000000000000000000000000000000000000000602082015250565b7f4552433732313a20617070726f76652063616c6c6572206973206e6f74206f7760008201527f6e6572206e6f7220617070726f76656420666f7220616c6c0000000000000000602082015250565b7f4552433732313a2062616c616e636520717565727920666f7220746865207a6560008201527f726f206164647265737300000000000000000000000000000000000000000000602082015250565b7f4552433732313a206f776e657220717565727920666f72206e6f6e657869737460008201527f656e7420746f6b656e0000000000000000000000000000000000000000000000602082015250565b7f222c20226465736372697074696f6e223a2022546869732069732061204e465460008201527f207468617420776173206f627461696e656420696e206120626f78206f66207260208201527f6567616c69732e222c2022696d616765223a2022697066733a2f2f0000000000604082015250565b7f227d000000000000000000000000000000000000000000000000000000000000600082015250565b7f4552433732313a206d696e7420746f20746865207a65726f2061646472657373600082015250565b7f4552433732313a20617070726f76656420717565727920666f72206e6f6e657860008201527f697374656e7420746f6b656e0000000000000000000000000000000000000000602082015250565b7f4552433732313a207472616e73666572206f6620746f6b656e2074686174206960008201527f73206e6f74206f776e0000000000000000000000000000000000000000000000602082015250565b7f7b226e616d65223a202200000000000000000000000000000000000000000000600082015250565b7f4f6e6c7920565246436f6f7264696e61746f722063616e2066756c66696c6c00600082015250565b7f4552433732313a20617070726f76616c20746f2063757272656e74206f776e6560008201527f7200000000000000000000000000000000000000000000000000000000000000602082015250565b7f646174613a6170706c69636174696f6e2f6a736f6e3b6261736536342c000000600082015250565b7f4552433732313a207472616e736665722063616c6c6572206973206e6f74206f60008201527f776e6572206e6f7220617070726f766564000000000000000000000000000000602082015250565b6141c581613a1c565b81146141d057600080fd5b50565b6141dc81613a2e565b81146141e757600080fd5b50565b6141f381613a3a565b81146141fe57600080fd5b50565b61420a81613a44565b811461421557600080fd5b50565b61422181613a90565b811461422c57600080fd5b5056fe4142434445464748494a4b4c4d4e4f505152535455565758595a6162636465666768696a6b6c6d6e6f707172737475767778797a303132333435363738392b2f4d696e746564204e465420772f20746f6b656e496420257320616e6420636861726163746572496e6465782025732c20436861726163746572206e616d65202573a2646970667358221220592ec5966953fd768c2fd59ee4c149616d4d38294214a4cce919487be6b8c1db64736f6c63430008040033446f6e6520696e697469616c697a696e6720257320772f20696d675572693a2025732c",
  "linkReferences": {},
  "deployedLinkReferences": {}
}