{
  "_format": "hh-sol-artifact-1",
  "contractName": "Regalis",
  "sourceName": "contracts/Regalis.sol",
  "abi": [
    {
      "inputs": [
        {
          "internalType": "string[]",
          "name": "characterNames",
          "type": "string[]"
        },
        {
          "internalType": "string[]",
          "name": "characterImageURIs",
          "type": "string[]"
        }
      ],
      "stateMutability": "nonpayable",
      "type": "constructor"
    },
    {
      "anonymous": false,
      "inputs": [
        {
          "indexed": true,
          "internalType": "address",
          "name": "owner",
          "type": "address"
        },
        {
          "indexed": true,
          "internalType": "address",
          "name": "approved",
          "type": "address"
        },
        {
          "indexed": true,
          "internalType": "uint256",
          "name": "tokenId",
          "type": "uint256"
        }
      ],
      "name": "Approval",
      "type": "event"
    },
    {
      "anonymous": false,
      "inputs": [
        {
          "indexed": true,
          "internalType": "address",
          "name": "owner",
          "type": "address"
        },
        {
          "indexed": true,
          "internalType": "address",
          "name": "operator",
          "type": "address"
        },
        {
          "indexed": false,
          "internalType": "bool",
          "name": "approved",
          "type": "bool"
        }
      ],
      "name": "ApprovalForAll",
      "type": "event"
    },
    {
      "anonymous": false,
      "inputs": [
        {
          "indexed": false,
          "internalType": "address",
          "name": "sender",
          "type": "address"
        },
        {
          "indexed": false,
          "internalType": "uint256",
          "name": "tokenId",
          "type": "uint256"
        },
        {
          "indexed": false,
          "internalType": "uint256",
          "name": "characterIndex",
          "type": "uint256"
        }
      ],
      "name": "CharacterNFTMinted",
      "type": "event"
    },
    {
      "anonymous": false,
      "inputs": [
        {
          "indexed": true,
          "internalType": "address",
          "name": "from",
          "type": "address"
        },
        {
          "indexed": true,
          "internalType": "address",
          "name": "to",
          "type": "address"
        },
        {
          "indexed": true,
          "internalType": "uint256",
          "name": "tokenId",
          "type": "uint256"
        }
      ],
      "name": "Transfer",
      "type": "event"
    },
    {
      "inputs": [
        {
          "internalType": "address",
          "name": "to",
          "type": "address"
        },
        {
          "internalType": "uint256",
          "name": "tokenId",
          "type": "uint256"
        }
      ],
      "name": "approve",
      "outputs": [],
      "stateMutability": "nonpayable",
      "type": "function"
    },
    {
      "inputs": [
        {
          "internalType": "address",
          "name": "owner",
          "type": "address"
        }
      ],
      "name": "balanceOf",
      "outputs": [
        {
          "internalType": "uint256",
          "name": "",
          "type": "uint256"
        }
      ],
      "stateMutability": "view",
      "type": "function"
    },
    {
      "inputs": [],
      "name": "checkIfUserHasNFT",
      "outputs": [
        {
          "components": [
            {
              "internalType": "uint256",
              "name": "characterIndex",
              "type": "uint256"
            },
            {
              "internalType": "string",
              "name": "name",
              "type": "string"
            },
            {
              "internalType": "string",
              "name": "imageURI",
              "type": "string"
            }
          ],
          "internalType": "struct Regalis.RegalisBoxes",
          "name": "",
          "type": "tuple"
        }
      ],
      "stateMutability": "view",
      "type": "function"
    },
    {
      "inputs": [],
      "name": "getAllDefaultCharacters",
      "outputs": [
        {
          "components": [
            {
              "internalType": "uint256",
              "name": "characterIndex",
              "type": "uint256"
            },
            {
              "internalType": "string",
              "name": "name",
              "type": "string"
            },
            {
              "internalType": "string",
              "name": "imageURI",
              "type": "string"
            }
          ],
          "internalType": "struct Regalis.RegalisBoxes[]",
          "name": "",
          "type": "tuple[]"
        }
      ],
      "stateMutability": "view",
      "type": "function"
    },
    {
      "inputs": [
        {
          "internalType": "uint256",
          "name": "tokenId",
          "type": "uint256"
        }
      ],
      "name": "getApproved",
      "outputs": [
        {
          "internalType": "address",
          "name": "",
          "type": "address"
        }
      ],
      "stateMutability": "view",
      "type": "function"
    },
    {
      "inputs": [
        {
          "internalType": "address",
          "name": "owner",
          "type": "address"
        },
        {
          "internalType": "address",
          "name": "operator",
          "type": "address"
        }
      ],
      "name": "isApprovedForAll",
      "outputs": [
        {
          "internalType": "bool",
          "name": "",
          "type": "bool"
        }
      ],
      "stateMutability": "view",
      "type": "function"
    },
    {
      "inputs": [
        {
          "internalType": "uint256",
          "name": "_characterIndex",
          "type": "uint256"
        }
      ],
      "name": "mintCharacterNFT",
      "outputs": [],
      "stateMutability": "nonpayable",
      "type": "function"
    },
    {
      "inputs": [],
      "name": "name",
      "outputs": [
        {
          "internalType": "string",
          "name": "",
          "type": "string"
        }
      ],
      "stateMutability": "view",
      "type": "function"
    },
    {
      "inputs": [
        {
          "internalType": "uint256",
          "name": "",
          "type": "uint256"
        }
      ],
      "name": "nftHolderAttributes",
      "outputs": [
        {
          "internalType": "uint256",
          "name": "characterIndex",
          "type": "uint256"
        },
        {
          "internalType": "string",
          "name": "name",
          "type": "string"
        },
        {
          "internalType": "string",
          "name": "imageURI",
          "type": "string"
        }
      ],
      "stateMutability": "view",
      "type": "function"
    },
    {
      "inputs": [
        {
          "internalType": "address",
          "name": "",
          "type": "address"
        }
      ],
      "name": "nftHolders",
      "outputs": [
        {
          "internalType": "uint256",
          "name": "",
          "type": "uint256"
        }
      ],
      "stateMutability": "view",
      "type": "function"
    },
    {
      "inputs": [
        {
          "internalType": "uint256",
          "name": "tokenId",
          "type": "uint256"
        }
      ],
      "name": "ownerOf",
      "outputs": [
        {
          "internalType": "address",
          "name": "",
          "type": "address"
        }
      ],
      "stateMutability": "view",
      "type": "function"
    },
    {
      "inputs": [
        {
          "internalType": "address",
          "name": "from",
          "type": "address"
        },
        {
          "internalType": "address",
          "name": "to",
          "type": "address"
        },
        {
          "internalType": "uint256",
          "name": "tokenId",
          "type": "uint256"
        }
      ],
      "name": "safeTransferFrom",
      "outputs": [],
      "stateMutability": "nonpayable",
      "type": "function"
    },
    {
      "inputs": [
        {
          "internalType": "address",
          "name": "from",
          "type": "address"
        },
        {
          "internalType": "address",
          "name": "to",
          "type": "address"
        },
        {
          "internalType": "uint256",
          "name": "tokenId",
          "type": "uint256"
        },
        {
          "internalType": "bytes",
          "name": "_data",
          "type": "bytes"
        }
      ],
      "name": "safeTransferFrom",
      "outputs": [],
      "stateMutability": "nonpayable",
      "type": "function"
    },
    {
      "inputs": [
        {
          "internalType": "address",
          "name": "operator",
          "type": "address"
        },
        {
          "internalType": "bool",
          "name": "approved",
          "type": "bool"
        }
      ],
      "name": "setApprovalForAll",
      "outputs": [],
      "stateMutability": "nonpayable",
      "type": "function"
    },
    {
      "inputs": [
        {
          "internalType": "bytes4",
          "name": "interfaceId",
          "type": "bytes4"
        }
      ],
      "name": "supportsInterface",
      "outputs": [
        {
          "internalType": "bool",
          "name": "",
          "type": "bool"
        }
      ],
      "stateMutability": "view",
      "type": "function"
    },
    {
      "inputs": [],
      "name": "symbol",
      "outputs": [
        {
          "internalType": "string",
          "name": "",
          "type": "string"
        }
      ],
      "stateMutability": "view",
      "type": "function"
    },
    {
      "inputs": [
        {
          "internalType": "uint256",
          "name": "_tokenId",
          "type": "uint256"
        }
      ],
      "name": "tokenURI",
      "outputs": [
        {
          "internalType": "string",
          "name": "",
          "type": "string"
        }
      ],
      "stateMutability": "view",
      "type": "function"
    },
    {
      "inputs": [
        {
          "internalType": "address",
          "name": "from",
          "type": "address"
        },
        {
          "internalType": "address",
          "name": "to",
          "type": "address"
        },
        {
          "internalType": "uint256",
          "name": "tokenId",
          "type": "uint256"
        }
      ],
      "name": "transferFrom",
      "outputs": [],
      "stateMutability": "nonpayable",
      "type": "function"
    }
  ],
  "bytecode": "0x60806040523480156200001157600080fd5b50604051620043e5380380620043e583398181016040528101906200003791906200069e565b6040518060400160405280600781526020017f526567616c69730000000000000000000000000000000000000000000000000081525060405180602001604052806000815250816000908051906020019062000095929190620004bf565b508060019080519060200190620000ae929190620004bf565b50505060005b8251811015620003b757600760405180606001604052808381526020018584815181106200010b577f4e487b7100000000000000000000000000000000000000000000000000000000600052603260045260246000fd5b6020026020010151815260200184848151811062000152577f4e487b7100000000000000000000000000000000000000000000000000000000600052603260045260246000fd5b60200260200101518152509080600181540180825580915050600190039060005260206000209060030201600090919091909150600082015181600001556020820151816001019080519060200190620001ae929190620004bf565b506040820151816002019080519060200190620001cd929190620004bf565b5050506000600782815481106200020d577f4e487b7100000000000000000000000000000000000000000000000000000000600052603260045260246000fd5b9060005260206000209060030201604051806060016040529081600082015481526020016001820180546200024290620008eb565b80601f01602080910402602001604051908101604052809291908181526020018280546200027090620008eb565b8015620002c15780601f106200029557610100808354040283529160200191620002c1565b820191906000526020600020905b815481529060010190602001808311620002a357829003601f168201915b50505050508152602001600282018054620002dc90620008eb565b80601f01602080910402602001604051908101604052809291908181526020018280546200030a90620008eb565b80156200035b5780601f106200032f576101008083540402835291602001916200035b565b820191906000526020600020905b8154815290600101906020018083116200033d57829003601f168201915b50505050508152505090506200039f604051806060016040528060238152602001620043c26023913982602001518360400151620003d760201b620014fe1760201c565b50600181620003af91906200084e565b9050620000b4565b50620003cf60066200048060201b6200159d1760201c565b5050620009f5565b6200047b838383604051602401620003f29392919062000752565b6040516020818303038152906040527f2ced7cef000000000000000000000000000000000000000000000000000000007bffffffffffffffffffffffffffffffffffffffffffffffffffffffff19166020820180517bffffffffffffffffffffffffffffffffffffffffffffffffffffffff83818316178352505050506200049660201b60201c565b505050565b6001816000016000828254019250508190555050565b60008151905060006a636f6e736f6c652e6c6f679050602083016000808483855afa5050505050565b828054620004cd90620008eb565b90600052602060002090601f016020900481019282620004f157600085556200053d565b82601f106200050c57805160ff19168380011785556200053d565b828001600101855582156200053d579182015b828111156200053c5782518255916020019190600101906200051f565b5b5090506200054c919062000550565b5090565b5b808211156200056b57600081600090555060010162000551565b5090565b6000620005866200058084620007cd565b620007a4565b90508083825260208201905082856020860282011115620005a657600080fd5b60005b85811015620005f557815167ffffffffffffffff811115620005ca57600080fd5b808601620005d9898262000671565b85526020850194506020840193505050600181019050620005a9565b5050509392505050565b6000620006166200061084620007fc565b620007a4565b9050828152602081018484840111156200062f57600080fd5b6200063c848285620008b5565b509392505050565b600082601f8301126200065657600080fd5b8151620006688482602086016200056f565b91505092915050565b600082601f8301126200068357600080fd5b815162000695848260208601620005ff565b91505092915050565b60008060408385031215620006b257600080fd5b600083015167ffffffffffffffff811115620006cd57600080fd5b620006db8582860162000644565b925050602083015167ffffffffffffffff811115620006f957600080fd5b620007078582860162000644565b9150509250929050565b60006200071e8262000832565b6200072a81856200083d565b93506200073c818560208601620008b5565b6200074781620009e4565b840191505092915050565b600060608201905081810360008301526200076e818662000711565b9050818103602083015262000784818562000711565b905081810360408301526200079a818462000711565b9050949350505050565b6000620007b0620007c3565b9050620007be828262000921565b919050565b6000604051905090565b600067ffffffffffffffff821115620007eb57620007ea620009b5565b5b602082029050602081019050919050565b600067ffffffffffffffff8211156200081a5762000819620009b5565b5b6200082582620009e4565b9050602081019050919050565b600081519050919050565b600082825260208201905092915050565b60006200085b82620008ab565b91506200086883620008ab565b9250827fffffffffffffffffffffffffffffffffffffffffffffffffffffffffffffffff03821115620008a0576200089f62000957565b5b828201905092915050565b6000819050919050565b60005b83811015620008d5578082015181840152602081019050620008b8565b83811115620008e5576000848401525b50505050565b600060028204905060018216806200090457607f821691505b602082108114156200091b576200091a62000986565b5b50919050565b6200092c82620009e4565b810181811067ffffffffffffffff821117156200094e576200094d620009b5565b5b80604052505050565b7f4e487b7100000000000000000000000000000000000000000000000000000000600052601160045260246000fd5b7f4e487b7100000000000000000000000000000000000000000000000000000000600052602260045260246000fd5b7f4e487b7100000000000000000000000000000000000000000000000000000000600052604160045260246000fd5b6000601f19601f8301169050919050565b6139bd8062000a056000396000f3fe608060405234801561001057600080fd5b50600436106101165760003560e01c806395d89b41116100a2578063b953084e11610071578063b953084e14610305578063c87b56dd14610323578063c8cf27f414610353578063e985e9c514610371578063f8b81ef7146103a157610116565b806395d89b411461027d57806398da4c951461029b578063a22cb465146102cd578063b88d4fde146102e957610116565b806323b872dd116100e957806323b872dd146101b557806342842e0e146101d15780636352211e146101ed57806370a082311461021d5780637df124a11461024d57610116565b806301ffc9a71461011b57806306fdde031461014b578063081812fc14610169578063095ea7b314610199575b600080fd5b61013560048036038101906101309190612640565b6103bd565b6040516101429190612cbf565b60405180910390f35b61015361049f565b6040516101609190612cda565b60405180910390f35b610183600480360381019061017e9190612692565b610531565b6040516101909190612bff565b60405180910390f35b6101b360048036038101906101ae9190612604565b6105b6565b005b6101cf60048036038101906101ca91906124fe565b6106ce565b005b6101eb60048036038101906101e691906124fe565b61072e565b005b61020760048036038101906102029190612692565b61074e565b6040516102149190612bff565b60405180910390f35b61023760048036038101906102329190612499565b610800565b6040516102449190612f48565b60405180910390f35b61026760048036038101906102629190612499565b6108b8565b6040516102749190612f48565b60405180910390f35b6102856108d0565b6040516102929190612cda565b60405180910390f35b6102b560048036038101906102b09190612692565b610962565b6040516102c493929190612f63565b60405180910390f35b6102e760048036038101906102e291906125c8565b610a9c565b005b61030360048036038101906102fe919061254d565b610c1d565b005b61030d610c7f565b60405161031a9190612c9d565b60405180910390f35b61033d60048036038101906103389190612692565b610e0c565b60405161034a9190612cda565b60405180910390f35b61035b610fcd565b6040516103689190612f26565b60405180910390f35b61038b600480360381019061038691906124c2565b611187565b6040516103989190612cbf565b60405180910390f35b6103bb60048036038101906103b69190612692565b61121b565b005b60007f80ac58cd000000000000000000000000000000000000000000000000000000007bffffffffffffffffffffffffffffffffffffffffffffffffffffffff1916827bffffffffffffffffffffffffffffffffffffffffffffffffffffffff1916148061048857507f5b5e139f000000000000000000000000000000000000000000000000000000007bffffffffffffffffffffffffffffffffffffffffffffffffffffffff1916827bffffffffffffffffffffffffffffffffffffffffffffffffffffffff1916145b806104985750610497826115b3565b5b9050919050565b6060600080546104ae90613256565b80601f01602080910402602001604051908101604052809291908181526020018280546104da90613256565b80156105275780601f106104fc57610100808354040283529160200191610527565b820191906000526020600020905b81548152906001019060200180831161050a57829003601f168201915b5050505050905090565b600061053c8261161d565b61057b576040517f08c379a000000000000000000000000000000000000000000000000000000000815260040161057290612ea6565b60405180910390fd5b6004600083815260200190815260200160002060009054906101000a900473ffffffffffffffffffffffffffffffffffffffff169050919050565b60006105c18261074e565b90508073ffffffffffffffffffffffffffffffffffffffff168373ffffffffffffffffffffffffffffffffffffffff161415610632576040517f08c379a000000000000000000000000000000000000000000000000000000000815260040161062990612ee6565b60405180910390fd5b8073ffffffffffffffffffffffffffffffffffffffff16610651611689565b73ffffffffffffffffffffffffffffffffffffffff161480610680575061067f8161067a611689565b611187565b5b6106bf576040517f08c379a00000000000000000000000000000000000000000000000000000000081526004016106b690612e26565b60405180910390fd5b6106c98383611691565b505050565b6106df6106d9611689565b8261174a565b61071e576040517f08c379a000000000000000000000000000000000000000000000000000000000815260040161071590612f06565b60405180910390fd5b610729838383611828565b505050565b61074983838360405180602001604052806000815250610c1d565b505050565b6000806002600084815260200190815260200160002060009054906101000a900473ffffffffffffffffffffffffffffffffffffffff169050600073ffffffffffffffffffffffffffffffffffffffff168173ffffffffffffffffffffffffffffffffffffffff1614156107f7576040517f08c379a00000000000000000000000000000000000000000000000000000000081526004016107ee90612e66565b60405180910390fd5b80915050919050565b60008073ffffffffffffffffffffffffffffffffffffffff168273ffffffffffffffffffffffffffffffffffffffff161415610871576040517f08c379a000000000000000000000000000000000000000000000000000000000815260040161086890612e46565b60405180910390fd5b600360008373ffffffffffffffffffffffffffffffffffffffff1673ffffffffffffffffffffffffffffffffffffffff168152602001908152602001600020549050919050565b60096020528060005260406000206000915090505481565b6060600180546108df90613256565b80601f016020809104026020016040519081016040528092919081815260200182805461090b90613256565b80156109585780601f1061092d57610100808354040283529160200191610958565b820191906000526020600020905b81548152906001019060200180831161093b57829003601f168201915b5050505050905090565b600860205280600052604060002060009150905080600001549080600101805461098b90613256565b80601f01602080910402602001604051908101604052809291908181526020018280546109b790613256565b8015610a045780601f106109d957610100808354040283529160200191610a04565b820191906000526020600020905b8154815290600101906020018083116109e757829003601f168201915b505050505090806002018054610a1990613256565b80601f0160208091040260200160405190810160405280929190818152602001828054610a4590613256565b8015610a925780601f10610a6757610100808354040283529160200191610a92565b820191906000526020600020905b815481529060010190602001808311610a7557829003601f168201915b5050505050905083565b610aa4611689565b73ffffffffffffffffffffffffffffffffffffffff168273ffffffffffffffffffffffffffffffffffffffff161415610b12576040517f08c379a0000000000000000000000000000000000000000000000000000000008152600401610b0990612de6565b60405180910390fd5b8060056000610b1f611689565b73ffffffffffffffffffffffffffffffffffffffff1673ffffffffffffffffffffffffffffffffffffffff16815260200190815260200160002060008473ffffffffffffffffffffffffffffffffffffffff1673ffffffffffffffffffffffffffffffffffffffff16815260200190815260200160002060006101000a81548160ff0219169083151502179055508173ffffffffffffffffffffffffffffffffffffffff16610bcc611689565b73ffffffffffffffffffffffffffffffffffffffff167f17307eab39ab6107e8899845ad3d59bd9653f200f220920489ca2b5937696c3183604051610c119190612cbf565b60405180910390a35050565b610c2e610c28611689565b8361174a565b610c6d576040517f08c379a0000000000000000000000000000000000000000000000000000000008152600401610c6490612f06565b60405180910390fd5b610c7984848484611a84565b50505050565b60606007805480602002602001604051908101604052809291908181526020016000905b82821015610e03578382906000526020600020906003020160405180606001604052908160008201548152602001600182018054610ce090613256565b80601f0160208091040260200160405190810160405280929190818152602001828054610d0c90613256565b8015610d595780601f10610d2e57610100808354040283529160200191610d59565b820191906000526020600020905b815481529060010190602001808311610d3c57829003601f168201915b50505050508152602001600282018054610d7290613256565b80601f0160208091040260200160405190810160405280929190818152602001828054610d9e90613256565b8015610deb5780601f10610dc057610100808354040283529160200191610deb565b820191906000526020600020905b815481529060010190602001808311610dce57829003601f168201915b50505050508152505081526020019060010190610ca3565b50505050905090565b606060006008600084815260200190815260200160002060405180606001604052908160008201548152602001600182018054610e4890613256565b80601f0160208091040260200160405190810160405280929190818152602001828054610e7490613256565b8015610ec15780601f10610e9657610100808354040283529160200191610ec1565b820191906000526020600020905b815481529060010190602001808311610ea457829003601f168201915b50505050508152602001600282018054610eda90613256565b80601f0160208091040260200160405190810160405280929190818152602001828054610f0690613256565b8015610f535780601f10610f2857610100808354040283529160200191610f53565b820191906000526020600020905b815481529060010190602001808311610f3657829003601f168201915b50505050508152505090506000610f9c8260200151610f7186611ae0565b8460400151604051602001610f8893929190612b80565b604051602081830303815290604052611c8d565b9050600081604051602001610fb19190612bdd565b6040516020818303038152906040529050809350505050919050565b610fd5612304565b6000600960003373ffffffffffffffffffffffffffffffffffffffff1673ffffffffffffffffffffffffffffffffffffffff168152602001908152602001600020549050600081111561117657600860008281526020019081526020016000206040518060600160405290816000820154815260200160018201805461105a90613256565b80601f016020809104026020016040519081016040528092919081815260200182805461108690613256565b80156110d35780601f106110a8576101008083540402835291602001916110d3565b820191906000526020600020905b8154815290600101906020018083116110b657829003601f168201915b505050505081526020016002820180546110ec90613256565b80601f016020809104026020016040519081016040528092919081815260200182805461111890613256565b80156111655780601f1061113a57610100808354040283529160200191611165565b820191906000526020600020905b81548152906001019060200180831161114857829003601f168201915b505050505081525050915050611184565b61117e612304565b80925050505b90565b6000600560008473ffffffffffffffffffffffffffffffffffffffff1673ffffffffffffffffffffffffffffffffffffffff16815260200190815260200160002060008373ffffffffffffffffffffffffffffffffffffffff1673ffffffffffffffffffffffffffffffffffffffff16815260200190815260200160002060009054906101000a900460ff16905092915050565b60006112276006611e38565b90506112333382611e46565b60405180606001604052808381526020016007848154811061127e577f4e487b7100000000000000000000000000000000000000000000000000000000600052603260045260246000fd5b9060005260206000209060030201600101805461129a90613256565b80601f01602080910402602001604051908101604052809291908181526020018280546112c690613256565b80156113135780601f106112e857610100808354040283529160200191611313565b820191906000526020600020905b8154815290600101906020018083116112f657829003601f168201915b5050505050815260200160078481548110611357577f4e487b7100000000000000000000000000000000000000000000000000000000600052603260045260246000fd5b9060005260206000209060030201600201805461137390613256565b80601f016020809104026020016040519081016040528092919081815260200182805461139f90613256565b80156113ec5780601f106113c1576101008083540402835291602001916113ec565b820191906000526020600020905b8154815290600101906020018083116113cf57829003601f168201915b50505050508152506008600083815260200190815260200160002060008201518160000155602082015181600101908051906020019061142d929190612325565b50604082015181600201908051906020019061144a929190612325565b50905050611471604051806080016040528060418152602001613947604191398284611e64565b80600960003373ffffffffffffffffffffffffffffffffffffffff1673ffffffffffffffffffffffffffffffffffffffff168152602001908152602001600020819055506114bf600661159d565b7f4bc303fd457a97b4691b9af582ce71868a3d258638c8d4f8c60988a0f0bfb8cd3382846040516114f293929190612c66565b60405180910390a15050565b61159883838360405160240161151693929190612cfc565b6040516020818303038152906040527f2ced7cef000000000000000000000000000000000000000000000000000000007bffffffffffffffffffffffffffffffffffffffffffffffffffffffff19166020820180517bffffffffffffffffffffffffffffffffffffffffffffffffffffffff8381831617835250505050611f03565b505050565b6001816000016000828254019250508190555050565b60007f01ffc9a7000000000000000000000000000000000000000000000000000000007bffffffffffffffffffffffffffffffffffffffffffffffffffffffff1916827bffffffffffffffffffffffffffffffffffffffffffffffffffffffff1916149050919050565b60008073ffffffffffffffffffffffffffffffffffffffff166002600084815260200190815260200160002060009054906101000a900473ffffffffffffffffffffffffffffffffffffffff1673ffffffffffffffffffffffffffffffffffffffff1614159050919050565b600033905090565b816004600083815260200190815260200160002060006101000a81548173ffffffffffffffffffffffffffffffffffffffff021916908373ffffffffffffffffffffffffffffffffffffffff160217905550808273ffffffffffffffffffffffffffffffffffffffff166117048361074e565b73ffffffffffffffffffffffffffffffffffffffff167f8c5be1e5ebec7d5bd14f71427d1e84f3dd0314c0f7b2291e5b200ac8c7c3b92560405160405180910390a45050565b60006117558261161d565b611794576040517f08c379a000000000000000000000000000000000000000000000000000000000815260040161178b90612e06565b60405180910390fd5b600061179f8361074e565b90508073ffffffffffffffffffffffffffffffffffffffff168473ffffffffffffffffffffffffffffffffffffffff16148061180e57508373ffffffffffffffffffffffffffffffffffffffff166117f684610531565b73ffffffffffffffffffffffffffffffffffffffff16145b8061181f575061181e8185611187565b5b91505092915050565b8273ffffffffffffffffffffffffffffffffffffffff166118488261074e565b73ffffffffffffffffffffffffffffffffffffffff161461189e576040517f08c379a000000000000000000000000000000000000000000000000000000000815260040161189590612ec6565b60405180910390fd5b600073ffffffffffffffffffffffffffffffffffffffff168273ffffffffffffffffffffffffffffffffffffffff16141561190e576040517f08c379a000000000000000000000000000000000000000000000000000000000815260040161190590612dc6565b60405180910390fd5b611919838383611f2c565b611924600082611691565b6001600360008573ffffffffffffffffffffffffffffffffffffffff1673ffffffffffffffffffffffffffffffffffffffff1681526020019081526020016000206000828254611974919061316c565b925050819055506001600360008473ffffffffffffffffffffffffffffffffffffffff1673ffffffffffffffffffffffffffffffffffffffff16815260200190815260200160002060008282546119cb919061308b565b92505081905550816002600083815260200190815260200160002060006101000a81548173ffffffffffffffffffffffffffffffffffffffff021916908373ffffffffffffffffffffffffffffffffffffffff160217905550808273ffffffffffffffffffffffffffffffffffffffff168473ffffffffffffffffffffffffffffffffffffffff167fddf252ad1be2c89b69c2b068fc378daa952ba7f163c4a11628f55a4df523b3ef60405160405180910390a4505050565b611a8f848484611828565b611a9b84848484611f31565b611ada576040517f08c379a0000000000000000000000000000000000000000000000000000000008152600401611ad190612d86565b60405180910390fd5b50505050565b60606000821415611b28576040518060400160405280600181526020017f30000000000000000000000000000000000000000000000000000000000000008152509050611c88565b600082905060005b60008214611b5a578080611b43906132b9565b915050600a82611b5391906130e1565b9150611b30565b60008167ffffffffffffffff811115611b9c577f4e487b7100000000000000000000000000000000000000000000000000000000600052604160045260246000fd5b6040519080825280601f01601f191660200182016040528015611bce5781602001600182028036833780820191505090505b5090505b60008514611c8157600182611be7919061316c565b9150600a85611bf69190613302565b6030611c02919061308b565b60f81b818381518110611c3e577f4e487b7100000000000000000000000000000000000000000000000000000000600052603260045260246000fd5b60200101907effffffffffffffffffffffffffffffffffffffffffffffffffffffffffffff1916908160001a905350600a85611c7a91906130e1565b9450611bd2565b8093505050505b919050565b6060600082511415611cb057604051806020016040528060008152509050611e33565b60006040518060600160405280604081526020016139076040913990506000600360028551611cdf919061308b565b611ce991906130e1565b6004611cf59190613112565b90506000602082611d06919061308b565b67ffffffffffffffff811115611d45577f4e487b7100000000000000000000000000000000000000000000000000000000600052604160045260246000fd5b6040519080825280601f01601f191660200182016040528015611d775781602001600182028036833780820191505090505b509050818152600183018586518101602084015b81831015611df2576003830192508251603f8160121c1685015160f81b8252600182019150603f81600c1c1685015160f81b8252600182019150603f8160061c1685015160f81b8252600182019150603f811685015160f81b825260018201915050611d8b565b600389510660018114611e0c5760028114611e1c57611e27565b613d3d60f01b6002830352611e27565b603d60f81b60018303525b50505050508093505050505b919050565b600081600001549050919050565b611e608282604051806020016040528060008152506120c8565b5050565b611efe838383604051602401611e7c93929190612d48565b6040516020818303038152906040527f969cdd03000000000000000000000000000000000000000000000000000000007bffffffffffffffffffffffffffffffffffffffffffffffffffffffff19166020820180517bffffffffffffffffffffffffffffffffffffffffffffffffffffffff8381831617835250505050611f03565b505050565b60008151905060006a636f6e736f6c652e6c6f679050602083016000808483855afa5050505050565b505050565b6000611f528473ffffffffffffffffffffffffffffffffffffffff16612123565b156120bb578373ffffffffffffffffffffffffffffffffffffffff1663150b7a02611f7b611689565b8786866040518563ffffffff1660e01b8152600401611f9d9493929190612c1a565b602060405180830381600087803b158015611fb757600080fd5b505af1925050508015611fe857506040513d601f19601f82011682018060405250810190611fe59190612669565b60015b61206b573d8060008114612018576040519150601f19603f3d011682016040523d82523d6000602084013e61201d565b606091505b50600081511415612063576040517f08c379a000000000000000000000000000000000000000000000000000000000815260040161205a90612d86565b60405180910390fd5b805181602001fd5b63150b7a0260e01b7bffffffffffffffffffffffffffffffffffffffffffffffffffffffff1916817bffffffffffffffffffffffffffffffffffffffffffffffffffffffff1916149150506120c0565b600190505b949350505050565b6120d28383612136565b6120df6000848484611f31565b61211e576040517f08c379a000000000000000000000000000000000000000000000000000000000815260040161211590612d86565b60405180910390fd5b505050565b600080823b905060008111915050919050565b600073ffffffffffffffffffffffffffffffffffffffff168273ffffffffffffffffffffffffffffffffffffffff1614156121a6576040517f08c379a000000000000000000000000000000000000000000000000000000000815260040161219d90612e86565b60405180910390fd5b6121af8161161d565b156121ef576040517f08c379a00000000000000000000000000000000000000000000000000000000081526004016121e690612da6565b60405180910390fd5b6121fb60008383611f2c565b6001600360008473ffffffffffffffffffffffffffffffffffffffff1673ffffffffffffffffffffffffffffffffffffffff168152602001908152602001600020600082825461224b919061308b565b92505081905550816002600083815260200190815260200160002060006101000a81548173ffffffffffffffffffffffffffffffffffffffff021916908373ffffffffffffffffffffffffffffffffffffffff160217905550808273ffffffffffffffffffffffffffffffffffffffff16600073ffffffffffffffffffffffffffffffffffffffff167fddf252ad1be2c89b69c2b068fc378daa952ba7f163c4a11628f55a4df523b3ef60405160405180910390a45050565b60405180606001604052806000815260200160608152602001606081525090565b82805461233190613256565b90600052602060002090601f016020900481019282612353576000855561239a565b82601f1061236c57805160ff191683800117855561239a565b8280016001018555821561239a579182015b8281111561239957825182559160200191906001019061237e565b5b5090506123a791906123ab565b5090565b5b808211156123c45760008160009055506001016123ac565b5090565b60006123db6123d684612fcd565b612fa8565b9050828152602081018484840111156123f357600080fd5b6123fe848285613214565b509392505050565b600081359050612415816138aa565b92915050565b60008135905061242a816138c1565b92915050565b60008135905061243f816138d8565b92915050565b600081519050612454816138d8565b92915050565b600082601f83011261246b57600080fd5b813561247b8482602086016123c8565b91505092915050565b600081359050612493816138ef565b92915050565b6000602082840312156124ab57600080fd5b60006124b984828501612406565b91505092915050565b600080604083850312156124d557600080fd5b60006124e385828601612406565b92505060206124f485828601612406565b9150509250929050565b60008060006060848603121561251357600080fd5b600061252186828701612406565b935050602061253286828701612406565b925050604061254386828701612484565b9150509250925092565b6000806000806080858703121561256357600080fd5b600061257187828801612406565b945050602061258287828801612406565b935050604061259387828801612484565b925050606085013567ffffffffffffffff8111156125b057600080fd5b6125bc8782880161245a565b91505092959194509250565b600080604083850312156125db57600080fd5b60006125e985828601612406565b92505060206125fa8582860161241b565b9150509250929050565b6000806040838503121561261757600080fd5b600061262585828601612406565b925050602061263685828601612484565b9150509250929050565b60006020828403121561265257600080fd5b600061266084828501612430565b91505092915050565b60006020828403121561267b57600080fd5b600061268984828501612445565b91505092915050565b6000602082840312156126a457600080fd5b60006126b284828501612484565b91505092915050565b60006126c78383612ab4565b905092915050565b6126d8816131a0565b82525050565b60006126e98261300e565b6126f3818561303c565b93508360208202850161270585612ffe565b8060005b85811015612741578484038952815161272285826126bb565b945061272d8361302f565b925060208a01995050600181019050612709565b50829750879550505050505092915050565b61275c816131b2565b82525050565b600061276d82613019565b612777818561304d565b9350612787818560208601613223565b612790816133ef565b840191505092915050565b60006127a682613024565b6127b0818561305e565b93506127c0818560208601613223565b6127c9816133ef565b840191505092915050565b60006127df82613024565b6127e9818561306f565b93506127f9818560208601613223565b612802816133ef565b840191505092915050565b600061281882613024565b6128228185613080565b9350612832818560208601613223565b80840191505092915050565b600061284b600b83613080565b915061285682613400565b600b82019050919050565b600061286e60328361306f565b915061287982613429565b604082019050919050565b6000612891601c8361306f565b915061289c82613478565b602082019050919050565b60006128b460248361306f565b91506128bf826134a1565b604082019050919050565b60006128d760198361306f565b91506128e2826134f0565b602082019050919050565b60006128fa602c8361306f565b915061290582613519565b604082019050919050565b600061291d60388361306f565b915061292882613568565b604082019050919050565b6000612940602a8361306f565b915061294b826135b7565b604082019050919050565b600061296360298361306f565b915061296e82613606565b604082019050919050565b6000612986605b83613080565b915061299182613655565b605b82019050919050565b60006129a9600283613080565b91506129b4826136ca565b600282019050919050565b60006129cc60208361306f565b91506129d7826136f3565b602082019050919050565b60006129ef602c8361306f565b91506129fa8261371c565b604082019050919050565b6000612a1260298361306f565b9150612a1d8261376b565b604082019050919050565b6000612a35600a83613080565b9150612a40826137ba565b600a82019050919050565b6000612a5860218361306f565b9150612a63826137e3565b604082019050919050565b6000612a7b601d83613080565b9150612a8682613832565b601d82019050919050565b6000612a9e60318361306f565b9150612aa98261385b565b604082019050919050565b6000606083016000830151612acc6000860182612b62565b5060208301518482036020860152612ae4828261279b565b91505060408301518482036040860152612afe828261279b565b9150508091505092915050565b6000606083016000830151612b236000860182612b62565b5060208301518482036020860152612b3b828261279b565b91505060408301518482036040860152612b55828261279b565b9150508091505092915050565b612b6b8161320a565b82525050565b612b7a8161320a565b82525050565b6000612b8b82612a28565b9150612b97828661280d565b9150612ba28261283e565b9150612bae828561280d565b9150612bb982612979565b9150612bc5828461280d565b9150612bd08261299c565b9150819050949350505050565b6000612be882612a6e565b9150612bf4828461280d565b915081905092915050565b6000602082019050612c1460008301846126cf565b92915050565b6000608082019050612c2f60008301876126cf565b612c3c60208301866126cf565b612c496040830185612b71565b8181036060830152612c5b8184612762565b905095945050505050565b6000606082019050612c7b60008301866126cf565b612c886020830185612b71565b612c956040830184612b71565b949350505050565b60006020820190508181036000830152612cb781846126de565b905092915050565b6000602082019050612cd46000830184612753565b92915050565b60006020820190508181036000830152612cf481846127d4565b905092915050565b60006060820190508181036000830152612d1681866127d4565b90508181036020830152612d2a81856127d4565b90508181036040830152612d3e81846127d4565b9050949350505050565b60006060820190508181036000830152612d6281866127d4565b9050612d716020830185612b71565b612d7e6040830184612b71565b949350505050565b60006020820190508181036000830152612d9f81612861565b9050919050565b60006020820190508181036000830152612dbf81612884565b9050919050565b60006020820190508181036000830152612ddf816128a7565b9050919050565b60006020820190508181036000830152612dff816128ca565b9050919050565b60006020820190508181036000830152612e1f816128ed565b9050919050565b60006020820190508181036000830152612e3f81612910565b9050919050565b60006020820190508181036000830152612e5f81612933565b9050919050565b60006020820190508181036000830152612e7f81612956565b9050919050565b60006020820190508181036000830152612e9f816129bf565b9050919050565b60006020820190508181036000830152612ebf816129e2565b9050919050565b60006020820190508181036000830152612edf81612a05565b9050919050565b60006020820190508181036000830152612eff81612a4b565b9050919050565b60006020820190508181036000830152612f1f81612a91565b9050919050565b60006020820190508181036000830152612f408184612b0b565b905092915050565b6000602082019050612f5d6000830184612b71565b92915050565b6000606082019050612f786000830186612b71565b8181036020830152612f8a81856127d4565b90508181036040830152612f9e81846127d4565b9050949350505050565b6000612fb2612fc3565b9050612fbe8282613288565b919050565b6000604051905090565b600067ffffffffffffffff821115612fe857612fe76133c0565b5b612ff1826133ef565b9050602081019050919050565b6000819050602082019050919050565b600081519050919050565b600081519050919050565b600081519050919050565b6000602082019050919050565b600082825260208201905092915050565b600082825260208201905092915050565b600082825260208201905092915050565b600082825260208201905092915050565b600081905092915050565b60006130968261320a565b91506130a18361320a565b9250827fffffffffffffffffffffffffffffffffffffffffffffffffffffffffffffffff038211156130d6576130d5613333565b5b828201905092915050565b60006130ec8261320a565b91506130f78361320a565b92508261310757613106613362565b5b828204905092915050565b600061311d8261320a565b91506131288361320a565b9250817fffffffffffffffffffffffffffffffffffffffffffffffffffffffffffffffff048311821515161561316157613160613333565b5b828202905092915050565b60006131778261320a565b91506131828361320a565b92508282101561319557613194613333565b5b828203905092915050565b60006131ab826131ea565b9050919050565b60008115159050919050565b60007fffffffff0000000000000000000000000000000000000000000000000000000082169050919050565b600073ffffffffffffffffffffffffffffffffffffffff82169050919050565b6000819050919050565b82818337600083830152505050565b60005b83811015613241578082015181840152602081019050613226565b83811115613250576000848401525b50505050565b6000600282049050600182168061326e57607f821691505b6020821081141561328257613281613391565b5b50919050565b613291826133ef565b810181811067ffffffffffffffff821117156132b0576132af6133c0565b5b80604052505050565b60006132c48261320a565b91507fffffffffffffffffffffffffffffffffffffffffffffffffffffffffffffffff8214156132f7576132f6613333565b5b600182019050919050565b600061330d8261320a565b91506133188361320a565b92508261332857613327613362565b5b828206905092915050565b7f4e487b7100000000000000000000000000000000000000000000000000000000600052601160045260246000fd5b7f4e487b7100000000000000000000000000000000000000000000000000000000600052601260045260246000fd5b7f4e487b7100000000000000000000000000000000000000000000000000000000600052602260045260246000fd5b7f4e487b7100000000000000000000000000000000000000000000000000000000600052604160045260246000fd5b6000601f19601f8301169050919050565b7f202d2d204e465420233a20000000000000000000000000000000000000000000600082015250565b7f4552433732313a207472616e7366657220746f206e6f6e20455243373231526560008201527f63656976657220696d706c656d656e7465720000000000000000000000000000602082015250565b7f4552433732313a20746f6b656e20616c7265616479206d696e74656400000000600082015250565b7f4552433732313a207472616e7366657220746f20746865207a65726f2061646460008201527f7265737300000000000000000000000000000000000000000000000000000000602082015250565b7f4552433732313a20617070726f766520746f2063616c6c657200000000000000600082015250565b7f4552433732313a206f70657261746f7220717565727920666f72206e6f6e657860008201527f697374656e7420746f6b656e0000000000000000000000000000000000000000602082015250565b7f4552433732313a20617070726f76652063616c6c6572206973206e6f74206f7760008201527f6e6572206e6f7220617070726f76656420666f7220616c6c0000000000000000602082015250565b7f4552433732313a2062616c616e636520717565727920666f7220746865207a6560008201527f726f206164647265737300000000000000000000000000000000000000000000602082015250565b7f4552433732313a206f776e657220717565727920666f72206e6f6e657869737460008201527f656e7420746f6b656e0000000000000000000000000000000000000000000000602082015250565b7f222c20226465736372697074696f6e223a2022546869732069732061204e465460008201527f207468617420776173206f627461696e656420696e206120626f78206f66207260208201527f6567616c69732e222c2022696d616765223a2022697066733a2f2f0000000000604082015250565b7f227d000000000000000000000000000000000000000000000000000000000000600082015250565b7f4552433732313a206d696e7420746f20746865207a65726f2061646472657373600082015250565b7f4552433732313a20617070726f76656420717565727920666f72206e6f6e657860008201527f697374656e7420746f6b656e0000000000000000000000000000000000000000602082015250565b7f4552433732313a207472616e73666572206f6620746f6b656e2074686174206960008201527f73206e6f74206f776e0000000000000000000000000000000000000000000000602082015250565b7f7b226e616d65223a202200000000000000000000000000000000000000000000600082015250565b7f4552433732313a20617070726f76616c20746f2063757272656e74206f776e6560008201527f7200000000000000000000000000000000000000000000000000000000000000602082015250565b7f646174613a6170706c69636174696f6e2f6a736f6e3b6261736536342c000000600082015250565b7f4552433732313a207472616e736665722063616c6c6572206973206e6f74206f60008201527f776e6572206e6f7220617070726f766564000000000000000000000000000000602082015250565b6138b3816131a0565b81146138be57600080fd5b50565b6138ca816131b2565b81146138d557600080fd5b50565b6138e1816131be565b81146138ec57600080fd5b50565b6138f88161320a565b811461390357600080fd5b5056fe4142434445464748494a4b4c4d4e4f505152535455565758595a6162636465666768696a6b6c6d6e6f707172737475767778797a303132333435363738392b2f4d696e746564204e465420772f20746f6b656e496420257320616e6420636861726163746572496e6465782025732c20436861726163746572206e616d65202573a26469706673582212202252810588b9b9ad7147735464468ac8a298f20daea78c985d45f0b451df9ce264736f6c63430008040033446f6e6520696e697469616c697a696e6720257320772f20696d675572693a2025732c",
  "linkReferences": {},
  "deployedLinkReferences": {}
}