{
  "_format": "hh-sol-artifact-1",
  "contractName": "PlatziPunks",
  "sourceName": "contracts/PlatziPunks.sol",
  "abi": [
    {
      "inputs": [
        {
          "internalType": "uint256",
          "name": "_maxSupply",
          "type": "uint256"
        }
      ],
      "stateMutability": "nonpayable",
      "type": "constructor"
    },
    {
      "anonymous": false,
      "inputs": [
        {
          "indexed": true,
          "internalType": "address",
          "name": "owner",
          "type": "address"
        },
        {
          "indexed": true,
          "internalType": "address",
          "name": "approved",
          "type": "address"
        },
        {
          "indexed": true,
          "internalType": "uint256",
          "name": "tokenId",
          "type": "uint256"
        }
      ],
      "name": "Approval",
      "type": "event"
    },
    {
      "anonymous": false,
      "inputs": [
        {
          "indexed": true,
          "internalType": "address",
          "name": "owner",
          "type": "address"
        },
        {
          "indexed": true,
          "internalType": "address",
          "name": "operator",
          "type": "address"
        },
        {
          "indexed": false,
          "internalType": "bool",
          "name": "approved",
          "type": "bool"
        }
      ],
      "name": "ApprovalForAll",
      "type": "event"
    },
    {
      "anonymous": false,
      "inputs": [
        {
          "indexed": true,
          "internalType": "address",
          "name": "from",
          "type": "address"
        },
        {
          "indexed": true,
          "internalType": "address",
          "name": "to",
          "type": "address"
        },
        {
          "indexed": true,
          "internalType": "uint256",
          "name": "tokenId",
          "type": "uint256"
        }
      ],
      "name": "Transfer",
      "type": "event"
    },
    {
      "inputs": [
        {
          "internalType": "address",
          "name": "to",
          "type": "address"
        },
        {
          "internalType": "uint256",
          "name": "tokenId",
          "type": "uint256"
        }
      ],
      "name": "approve",
      "outputs": [],
      "stateMutability": "nonpayable",
      "type": "function"
    },
    {
      "inputs": [
        {
          "internalType": "address",
          "name": "owner",
          "type": "address"
        }
      ],
      "name": "balanceOf",
      "outputs": [
        {
          "internalType": "uint256",
          "name": "",
          "type": "uint256"
        }
      ],
      "stateMutability": "view",
      "type": "function"
    },
    {
      "inputs": [
        {
          "internalType": "uint256",
          "name": "tokenId",
          "type": "uint256"
        }
      ],
      "name": "getApproved",
      "outputs": [
        {
          "internalType": "address",
          "name": "",
          "type": "address"
        }
      ],
      "stateMutability": "view",
      "type": "function"
    },
    {
      "inputs": [
        {
          "internalType": "address",
          "name": "owner",
          "type": "address"
        },
        {
          "internalType": "address",
          "name": "operator",
          "type": "address"
        }
      ],
      "name": "isApprovedForAll",
      "outputs": [
        {
          "internalType": "bool",
          "name": "",
          "type": "bool"
        }
      ],
      "stateMutability": "view",
      "type": "function"
    },
    {
      "inputs": [],
      "name": "maxSupply",
      "outputs": [
        {
          "internalType": "uint256",
          "name": "",
          "type": "uint256"
        }
      ],
      "stateMutability": "view",
      "type": "function"
    },
    {
      "inputs": [],
      "name": "mint",
      "outputs": [],
      "stateMutability": "payable",
      "type": "function"
    },
    {
      "inputs": [],
      "name": "name",
      "outputs": [
        {
          "internalType": "string",
          "name": "",
          "type": "string"
        }
      ],
      "stateMutability": "view",
      "type": "function"
    },
    {
      "inputs": [
        {
          "internalType": "uint256",
          "name": "tokenId",
          "type": "uint256"
        }
      ],
      "name": "ownerOf",
      "outputs": [
        {
          "internalType": "address",
          "name": "",
          "type": "address"
        }
      ],
      "stateMutability": "view",
      "type": "function"
    },
    {
      "inputs": [
        {
          "internalType": "address",
          "name": "from",
          "type": "address"
        },
        {
          "internalType": "address",
          "name": "to",
          "type": "address"
        },
        {
          "internalType": "uint256",
          "name": "tokenId",
          "type": "uint256"
        }
      ],
      "name": "safeTransferFrom",
      "outputs": [],
      "stateMutability": "nonpayable",
      "type": "function"
    },
    {
      "inputs": [
        {
          "internalType": "address",
          "name": "from",
          "type": "address"
        },
        {
          "internalType": "address",
          "name": "to",
          "type": "address"
        },
        {
          "internalType": "uint256",
          "name": "tokenId",
          "type": "uint256"
        },
        {
          "internalType": "bytes",
          "name": "_data",
          "type": "bytes"
        }
      ],
      "name": "safeTransferFrom",
      "outputs": [],
      "stateMutability": "nonpayable",
      "type": "function"
    },
    {
      "inputs": [
        {
          "internalType": "address",
          "name": "operator",
          "type": "address"
        },
        {
          "internalType": "bool",
          "name": "approved",
          "type": "bool"
        }
      ],
      "name": "setApprovalForAll",
      "outputs": [],
      "stateMutability": "nonpayable",
      "type": "function"
    },
    {
      "inputs": [
        {
          "internalType": "bytes4",
          "name": "interfaceId",
          "type": "bytes4"
        }
      ],
      "name": "supportsInterface",
      "outputs": [
        {
          "internalType": "bool",
          "name": "",
          "type": "bool"
        }
      ],
      "stateMutability": "view",
      "type": "function"
    },
    {
      "inputs": [],
      "name": "symbol",
      "outputs": [
        {
          "internalType": "string",
          "name": "",
          "type": "string"
        }
      ],
      "stateMutability": "view",
      "type": "function"
    },
    {
      "inputs": [
        {
          "internalType": "uint256",
          "name": "index",
          "type": "uint256"
        }
      ],
      "name": "tokenByIndex",
      "outputs": [
        {
          "internalType": "uint256",
          "name": "",
          "type": "uint256"
        }
      ],
      "stateMutability": "view",
      "type": "function"
    },
    {
      "inputs": [
        {
          "internalType": "address",
          "name": "owner",
          "type": "address"
        },
        {
          "internalType": "uint256",
          "name": "index",
          "type": "uint256"
        }
      ],
      "name": "tokenOfOwnerByIndex",
      "outputs": [
        {
          "internalType": "uint256",
          "name": "",
          "type": "uint256"
        }
      ],
      "stateMutability": "view",
      "type": "function"
    },
    {
      "inputs": [
        {
          "internalType": "uint256",
          "name": "_tokenId",
          "type": "uint256"
        }
      ],
      "name": "tokenURI",
      "outputs": [
        {
          "internalType": "string",
          "name": "",
          "type": "string"
        }
      ],
      "stateMutability": "view",
      "type": "function"
    },
    {
      "inputs": [],
      "name": "totalSupply",
      "outputs": [
        {
          "internalType": "uint256",
          "name": "",
          "type": "uint256"
        }
      ],
      "stateMutability": "view",
      "type": "function"
    },
    {
      "inputs": [
        {
          "internalType": "address",
          "name": "from",
          "type": "address"
        },
        {
          "internalType": "address",
          "name": "to",
          "type": "address"
        },
        {
          "internalType": "uint256",
          "name": "tokenId",
          "type": "uint256"
        }
      ],
      "name": "transferFrom",
      "outputs": [],
      "stateMutability": "nonpayable",
      "type": "function"
    }
  ],
  "bytecode": "0x60806040523480156200001157600080fd5b50604051620035fe380380620035fe8339818101604052810190620000379190620001ac565b6040518060400160405280600b81526020017f506c61747a6950756e6b730000000000000000000000000000000000000000008152506040518060400160405280600581526020017f504c504b530000000000000000000000000000000000000000000000000000008152508160009080519060200190620000bb929190620000e5565b508060019080519060200190620000d4929190620000e5565b50505080600b819055505062000261565b828054620000f390620001e2565b90600052602060002090601f01602090048101928262000117576000855562000163565b82601f106200013257805160ff191683800117855562000163565b8280016001018555821562000163579182015b828111156200016257825182559160200191906001019062000145565b5b50905062000172919062000176565b5090565b5b808211156200019157600081600090555060010162000177565b5090565b600081519050620001a68162000247565b92915050565b600060208284031215620001bf57600080fd5b6000620001cf8482850162000195565b91505092915050565b6000819050919050565b60006002820490506001821680620001fb57607f821691505b6020821081141562000212576200021162000218565b5b50919050565b7f4e487b7100000000000000000000000000000000000000000000000000000000600052602260045260246000fd5b6200025281620001d8565b81146200025e57600080fd5b50565b61338d80620002716000396000f3fe6080604052600436106101095760003560e01c80634f6ccce711610095578063a22cb46511610064578063a22cb46514610382578063b88d4fde146103ab578063c87b56dd146103d4578063d5abeb0114610411578063e985e9c51461043c57610109565b80634f6ccce7146102a05780636352211e146102dd57806370a082311461031a57806395d89b411461035757610109565b80631249c58b116100dc5780631249c58b146101dc57806318160ddd146101e657806323b872dd146102115780632f745c591461023a57806342842e0e1461027757610109565b806301ffc9a71461010e57806306fdde031461014b578063081812fc14610176578063095ea7b3146101b3575b600080fd5b34801561011a57600080fd5b5061013560048036038101906101309190612165565b610479565b6040516101429190612699565b60405180910390f35b34801561015757600080fd5b5061016061048b565b60405161016d91906126b4565b60405180910390f35b34801561018257600080fd5b5061019d600480360381019061019891906121b7565b61051d565b6040516101aa9190612632565b60405180910390f35b3480156101bf57600080fd5b506101da60048036038101906101d59190612129565b6105a2565b005b6101e46106ba565b005b3480156101f257600080fd5b506101fb610723565b60405161020891906128f6565b60405180910390f35b34801561021d57600080fd5b5061023860048036038101906102339190612023565b610730565b005b34801561024657600080fd5b50610261600480360381019061025c9190612129565b610790565b60405161026e91906128f6565b60405180910390f35b34801561028357600080fd5b5061029e60048036038101906102999190612023565b610835565b005b3480156102ac57600080fd5b506102c760048036038101906102c291906121b7565b610855565b6040516102d491906128f6565b60405180910390f35b3480156102e957600080fd5b5061030460048036038101906102ff91906121b7565b6108ec565b6040516103119190612632565b60405180910390f35b34801561032657600080fd5b50610341600480360381019061033c9190611fbe565b61099e565b60405161034e91906128f6565b60405180910390f35b34801561036357600080fd5b5061036c610a56565b60405161037991906126b4565b60405180910390f35b34801561038e57600080fd5b506103a960048036038101906103a491906120ed565b610ae8565b005b3480156103b757600080fd5b506103d260048036038101906103cd9190612072565b610c69565b005b3480156103e057600080fd5b506103fb60048036038101906103f691906121b7565b610ccb565b60405161040891906126b4565b60405180910390f35b34801561041d57600080fd5b50610426610d69565b60405161043391906128f6565b60405180910390f35b34801561044857600080fd5b50610463600480360381019061045e9190611fe7565b610d6f565b6040516104709190612699565b60405180910390f35b600061048482610e03565b9050919050565b60606000805461049a90612b75565b80601f01602080910402602001604051908101604052809291908181526020018280546104c690612b75565b80156105135780601f106104e857610100808354040283529160200191610513565b820191906000526020600020905b8154815290600101906020018083116104f657829003601f168201915b5050505050905090565b600061052882610e7d565b610567576040517f08c379a000000000000000000000000000000000000000000000000000000000815260040161055e90612836565b60405180910390fd5b6004600083815260200190815260200160002060009054906101000a900473ffffffffffffffffffffffffffffffffffffffff169050919050565b60006105ad826108ec565b90508073ffffffffffffffffffffffffffffffffffffffff168373ffffffffffffffffffffffffffffffffffffffff16141561061e576040517f08c379a000000000000000000000000000000000000000000000000000000000815260040161061590612876565b60405180910390fd5b8073ffffffffffffffffffffffffffffffffffffffff1661063d610ee9565b73ffffffffffffffffffffffffffffffffffffffff16148061066c575061066b81610666610ee9565b610d6f565b5b6106ab576040517f08c379a00000000000000000000000000000000000000000000000000000000081526004016106a2906127b6565b60405180910390fd5b6106b58383610ef1565b505050565b60006106c6600a610faa565b9050600b54811061070c576040517f08c379a000000000000000000000000000000000000000000000000000000000815260040161070390612776565b60405180910390fd5b6107163382610fb8565b610720600a610fd6565b50565b6000600880549050905090565b61074161073b610ee9565b82610fec565b610780576040517f08c379a000000000000000000000000000000000000000000000000000000000815260040161077790612896565b60405180910390fd5b61078b8383836110ca565b505050565b600061079b8361099e565b82106107dc576040517f08c379a00000000000000000000000000000000000000000000000000000000081526004016107d3906126d6565b60405180910390fd5b600660008473ffffffffffffffffffffffffffffffffffffffff1673ffffffffffffffffffffffffffffffffffffffff168152602001908152602001600020600083815260200190815260200160002054905092915050565b61085083838360405180602001604052806000815250610c69565b505050565b600061085f610723565b82106108a0576040517f08c379a0000000000000000000000000000000000000000000000000000000008152600401610897906128b6565b60405180910390fd5b600882815481106108da577f4e487b7100000000000000000000000000000000000000000000000000000000600052603260045260246000fd5b90600052602060002001549050919050565b6000806002600084815260200190815260200160002060009054906101000a900473ffffffffffffffffffffffffffffffffffffffff169050600073ffffffffffffffffffffffffffffffffffffffff168173ffffffffffffffffffffffffffffffffffffffff161415610995576040517f08c379a000000000000000000000000000000000000000000000000000000000815260040161098c906127f6565b60405180910390fd5b80915050919050565b60008073ffffffffffffffffffffffffffffffffffffffff168273ffffffffffffffffffffffffffffffffffffffff161415610a0f576040517f08c379a0000000000000000000000000000000000000000000000000000000008152600401610a06906127d6565b60405180910390fd5b600360008373ffffffffffffffffffffffffffffffffffffffff1673ffffffffffffffffffffffffffffffffffffffff168152602001908152602001600020549050919050565b606060018054610a6590612b75565b80601f0160208091040260200160405190810160405280929190818152602001828054610a9190612b75565b8015610ade5780601f10610ab357610100808354040283529160200191610ade565b820191906000526020600020905b815481529060010190602001808311610ac157829003601f168201915b5050505050905090565b610af0610ee9565b73ffffffffffffffffffffffffffffffffffffffff168273ffffffffffffffffffffffffffffffffffffffff161415610b5e576040517f08c379a0000000000000000000000000000000000000000000000000000000008152600401610b5590612756565b60405180910390fd5b8060056000610b6b610ee9565b73ffffffffffffffffffffffffffffffffffffffff1673ffffffffffffffffffffffffffffffffffffffff16815260200190815260200160002060008473ffffffffffffffffffffffffffffffffffffffff1673ffffffffffffffffffffffffffffffffffffffff16815260200190815260200160002060006101000a81548160ff0219169083151502179055508173ffffffffffffffffffffffffffffffffffffffff16610c18610ee9565b73ffffffffffffffffffffffffffffffffffffffff167f17307eab39ab6107e8899845ad3d59bd9653f200f220920489ca2b5937696c3183604051610c5d9190612699565b60405180910390a35050565b610c7a610c74610ee9565b83610fec565b610cb9576040517f08c379a0000000000000000000000000000000000000000000000000000000008152600401610cb090612896565b60405180910390fd5b610cc584848484611326565b50505050565b6060610cd682610e7d565b610d15576040517f08c379a0000000000000000000000000000000000000000000000000000000008152600401610d0c906128d6565b60405180910390fd5b6000610d3f83604051602001610d2b91906125eb565b604051602081830303815290604052611382565b905080604051602001610d5291906125c9565b604051602081830303815290604052915050919050565b600b5481565b6000600560008473ffffffffffffffffffffffffffffffffffffffff1673ffffffffffffffffffffffffffffffffffffffff16815260200190815260200160002060008373ffffffffffffffffffffffffffffffffffffffff1673ffffffffffffffffffffffffffffffffffffffff16815260200190815260200160002060009054906101000a900460ff16905092915050565b60007f780e9d63000000000000000000000000000000000000000000000000000000007bffffffffffffffffffffffffffffffffffffffffffffffffffffffff1916827bffffffffffffffffffffffffffffffffffffffffffffffffffffffff19161480610e765750610e758261152d565b5b9050919050565b60008073ffffffffffffffffffffffffffffffffffffffff166002600084815260200190815260200160002060009054906101000a900473ffffffffffffffffffffffffffffffffffffffff1673ffffffffffffffffffffffffffffffffffffffff1614159050919050565b600033905090565b816004600083815260200190815260200160002060006101000a81548173ffffffffffffffffffffffffffffffffffffffff021916908373ffffffffffffffffffffffffffffffffffffffff160217905550808273ffffffffffffffffffffffffffffffffffffffff16610f64836108ec565b73ffffffffffffffffffffffffffffffffffffffff167f8c5be1e5ebec7d5bd14f71427d1e84f3dd0314c0f7b2291e5b200ac8c7c3b92560405160405180910390a45050565b600081600001549050919050565b610fd282826040518060200160405280600081525061160f565b5050565b6001816000016000828254019250508190555050565b6000610ff782610e7d565b611036576040517f08c379a000000000000000000000000000000000000000000000000000000000815260040161102d90612796565b60405180910390fd5b6000611041836108ec565b90508073ffffffffffffffffffffffffffffffffffffffff168473ffffffffffffffffffffffffffffffffffffffff1614806110b057508373ffffffffffffffffffffffffffffffffffffffff166110988461051d565b73ffffffffffffffffffffffffffffffffffffffff16145b806110c157506110c08185610d6f565b5b91505092915050565b8273ffffffffffffffffffffffffffffffffffffffff166110ea826108ec565b73ffffffffffffffffffffffffffffffffffffffff1614611140576040517f08c379a000000000000000000000000000000000000000000000000000000000815260040161113790612856565b60405180910390fd5b600073ffffffffffffffffffffffffffffffffffffffff168273ffffffffffffffffffffffffffffffffffffffff1614156111b0576040517f08c379a00000000000000000000000000000000000000000000000000000000081526004016111a790612736565b60405180910390fd5b6111bb83838361166a565b6111c6600082610ef1565b6001600360008573ffffffffffffffffffffffffffffffffffffffff1673ffffffffffffffffffffffffffffffffffffffff16815260200190815260200160002060008282546112169190612a8b565b925050819055506001600360008473ffffffffffffffffffffffffffffffffffffffff1673ffffffffffffffffffffffffffffffffffffffff168152602001908152602001600020600082825461126d91906129aa565b92505081905550816002600083815260200190815260200160002060006101000a81548173ffffffffffffffffffffffffffffffffffffffff021916908373ffffffffffffffffffffffffffffffffffffffff160217905550808273ffffffffffffffffffffffffffffffffffffffff168473ffffffffffffffffffffffffffffffffffffffff167fddf252ad1be2c89b69c2b068fc378daa952ba7f163c4a11628f55a4df523b3ef60405160405180910390a4505050565b6113318484846110ca565b61133d8484848461167a565b61137c576040517f08c379a0000000000000000000000000000000000000000000000000000000008152600401611373906126f6565b60405180910390fd5b50505050565b60606000825114156113a557604051806020016040528060008152509050611528565b600060405180606001604052806040815260200161331860409139905060006003600285516113d491906129aa565b6113de9190612a00565b60046113ea9190612a31565b905060006020826113fb91906129aa565b67ffffffffffffffff81111561143a577f4e487b7100000000000000000000000000000000000000000000000000000000600052604160045260246000fd5b6040519080825280601f01601f19166020018201604052801561146c5781602001600182028036833780820191505090505b509050818152600183018586518101602084015b818310156114e7576003830192508251603f8160121c1685015160f81b8252600182019150603f81600c1c1685015160f81b8252600182019150603f8160061c1685015160f81b8252600182019150603f811685015160f81b825260018201915050611480565b60038951066001811461150157600281146115115761151c565b613d3d60f01b600283035261151c565b603d60f81b60018303525b50505050508093505050505b919050565b60007f80ac58cd000000000000000000000000000000000000000000000000000000007bffffffffffffffffffffffffffffffffffffffffffffffffffffffff1916827bffffffffffffffffffffffffffffffffffffffffffffffffffffffff191614806115f857507f5b5e139f000000000000000000000000000000000000000000000000000000007bffffffffffffffffffffffffffffffffffffffffffffffffffffffff1916827bffffffffffffffffffffffffffffffffffffffffffffffffffffffff1916145b80611608575061160782611811565b5b9050919050565b611619838361187b565b611626600084848461167a565b611665576040517f08c379a000000000000000000000000000000000000000000000000000000000815260040161165c906126f6565b60405180910390fd5b505050565b611675838383611a49565b505050565b600061169b8473ffffffffffffffffffffffffffffffffffffffff16611b5d565b15611804578373ffffffffffffffffffffffffffffffffffffffff1663150b7a026116c4610ee9565b8786866040518563ffffffff1660e01b81526004016116e6949392919061264d565b602060405180830381600087803b15801561170057600080fd5b505af192505050801561173157506040513d601f19601f8201168201806040525081019061172e919061218e565b60015b6117b4573d8060008114611761576040519150601f19603f3d011682016040523d82523d6000602084013e611766565b606091505b506000815114156117ac576040517f08c379a00000000000000000000000000000000000000000000000000000000081526004016117a3906126f6565b60405180910390fd5b805181602001fd5b63150b7a0260e01b7bffffffffffffffffffffffffffffffffffffffffffffffffffffffff1916817bffffffffffffffffffffffffffffffffffffffffffffffffffffffff191614915050611809565b600190505b949350505050565b60007f01ffc9a7000000000000000000000000000000000000000000000000000000007bffffffffffffffffffffffffffffffffffffffffffffffffffffffff1916827bffffffffffffffffffffffffffffffffffffffffffffffffffffffff1916149050919050565b600073ffffffffffffffffffffffffffffffffffffffff168273ffffffffffffffffffffffffffffffffffffffff1614156118eb576040517f08c379a00000000000000000000000000000000000000000000000000000000081526004016118e290612816565b60405180910390fd5b6118f481610e7d565b15611934576040517f08c379a000000000000000000000000000000000000000000000000000000000815260040161192b90612716565b60405180910390fd5b6119406000838361166a565b6001600360008473ffffffffffffffffffffffffffffffffffffffff1673ffffffffffffffffffffffffffffffffffffffff168152602001908152602001600020600082825461199091906129aa565b92505081905550816002600083815260200190815260200160002060006101000a81548173ffffffffffffffffffffffffffffffffffffffff021916908373ffffffffffffffffffffffffffffffffffffffff160217905550808273ffffffffffffffffffffffffffffffffffffffff16600073ffffffffffffffffffffffffffffffffffffffff167fddf252ad1be2c89b69c2b068fc378daa952ba7f163c4a11628f55a4df523b3ef60405160405180910390a45050565b611a54838383611b70565b600073ffffffffffffffffffffffffffffffffffffffff168373ffffffffffffffffffffffffffffffffffffffff161415611a9757611a9281611b75565b611ad6565b8173ffffffffffffffffffffffffffffffffffffffff168373ffffffffffffffffffffffffffffffffffffffff1614611ad557611ad48382611bbe565b5b5b600073ffffffffffffffffffffffffffffffffffffffff168273ffffffffffffffffffffffffffffffffffffffff161415611b1957611b1481611d2b565b611b58565b8273ffffffffffffffffffffffffffffffffffffffff168273ffffffffffffffffffffffffffffffffffffffff1614611b5757611b568282611e6e565b5b5b505050565b600080823b905060008111915050919050565b505050565b6008805490506009600083815260200190815260200160002081905550600881908060018154018082558091505060019003906000526020600020016000909190919091505550565b60006001611bcb8461099e565b611bd59190612a8b565b9050600060076000848152602001908152602001600020549050818114611cba576000600660008673ffffffffffffffffffffffffffffffffffffffff1673ffffffffffffffffffffffffffffffffffffffff168152602001908152602001600020600084815260200190815260200160002054905080600660008773ffffffffffffffffffffffffffffffffffffffff1673ffffffffffffffffffffffffffffffffffffffff168152602001908152602001600020600084815260200190815260200160002081905550816007600083815260200190815260200160002081905550505b6007600084815260200190815260200160002060009055600660008573ffffffffffffffffffffffffffffffffffffffff1673ffffffffffffffffffffffffffffffffffffffff16815260200190815260200160002060008381526020019081526020016000206000905550505050565b60006001600880549050611d3f9190612a8b565b9050600060096000848152602001908152602001600020549050600060088381548110611d95577f4e487b7100000000000000000000000000000000000000000000000000000000600052603260045260246000fd5b906000526020600020015490508060088381548110611ddd577f4e487b7100000000000000000000000000000000000000000000000000000000600052603260045260246000fd5b906000526020600020018190555081600960008381526020019081526020016000208190555060096000858152602001908152602001600020600090556008805480611e52577f4e487b7100000000000000000000000000000000000000000000000000000000600052603160045260246000fd5b6001900381819060005260206000200160009055905550505050565b6000611e798361099e565b905081600660008573ffffffffffffffffffffffffffffffffffffffff1673ffffffffffffffffffffffffffffffffffffffff168152602001908152602001600020600083815260200190815260200160002081905550806007600084815260200190815260200160002081905550505050565b6000611f00611efb84612936565b612911565b905082815260208101848484011115611f1857600080fd5b611f23848285612b33565b509392505050565b600081359050611f3a816132bb565b92915050565b600081359050611f4f816132d2565b92915050565b600081359050611f64816132e9565b92915050565b600081519050611f79816132e9565b92915050565b600082601f830112611f9057600080fd5b8135611fa0848260208601611eed565b91505092915050565b600081359050611fb881613300565b92915050565b600060208284031215611fd057600080fd5b6000611fde84828501611f2b565b91505092915050565b60008060408385031215611ffa57600080fd5b600061200885828601611f2b565b925050602061201985828601611f2b565b9150509250929050565b60008060006060848603121561203857600080fd5b600061204686828701611f2b565b935050602061205786828701611f2b565b925050604061206886828701611fa9565b9150509250925092565b6000806000806080858703121561208857600080fd5b600061209687828801611f2b565b94505060206120a787828801611f2b565b93505060406120b887828801611fa9565b925050606085013567ffffffffffffffff8111156120d557600080fd5b6120e187828801611f7f565b91505092959194509250565b6000806040838503121561210057600080fd5b600061210e85828601611f2b565b925050602061211f85828601611f40565b9150509250929050565b6000806040838503121561213c57600080fd5b600061214a85828601611f2b565b925050602061215b85828601611fa9565b9150509250929050565b60006020828403121561217757600080fd5b600061218584828501611f55565b91505092915050565b6000602082840312156121a057600080fd5b60006121ae84828501611f6a565b91505092915050565b6000602082840312156121c957600080fd5b60006121d784828501611fa9565b91505092915050565b6121e981612abf565b82525050565b6121f881612ad1565b82525050565b600061220982612967565b612213818561297d565b9350612223818560208601612b42565b61222c81612c9e565b840191505092915050565b600061224282612972565b61224c818561298e565b935061225c818560208601612b42565b61226581612c9e565b840191505092915050565b600061227b82612972565b612285818561299f565b9350612295818560208601612b42565b80840191505092915050565b60006122ae602b8361298e565b91506122b982612caf565b604082019050919050565b60006122d160328361298e565b91506122dc82612cfe565b604082019050919050565b60006122f4601c8361298e565b91506122ff82612d4d565b602082019050919050565b600061231760248361298e565b915061232282612d76565b604082019050919050565b600061233a60198361298e565b915061234582612dc5565b602082019050919050565b600061235d602f8361298e565b915061236882612dee565b604082019050919050565b6000612380602c8361298e565b915061238b82612e3d565b604082019050919050565b60006123a360388361298e565b91506123ae82612e8c565b604082019050919050565b60006123c6602a8361298e565b91506123d182612edb565b604082019050919050565b60006123e960298361298e565b91506123f482612f2a565b604082019050919050565b600061240c60028361299f565b915061241782612f79565b600282019050919050565b600061242f60768361299f565b915061243a82612fa2565b607682019050919050565b600061245260208361298e565b915061245d8261303d565b602082019050919050565b6000612475602c8361298e565b915061248082613066565b604082019050919050565b600061249860298361298e565b91506124a3826130b5565b604082019050919050565b60006124bb601c8361299f565b91506124c682613104565b601c82019050919050565b60006124de60218361298e565b91506124e98261312d565b604082019050919050565b6000612501601d8361299f565b915061250c8261317c565b601d82019050919050565b600061252460318361298e565b915061252f826131a5565b604082019050919050565b6000612547602c8361298e565b9150612552826131f4565b604082019050919050565b600061256a60178361299f565b915061257582613243565b601782019050919050565b600061258d60268361298e565b91506125988261326c565b604082019050919050565b6125ac81612b29565b82525050565b6125c36125be82612b29565b612bd8565b82525050565b60006125d4826124f4565b91506125e08284612270565b915081905092915050565b60006125f68261255d565b915061260282846125b2565b60208201915061261182612422565b915061261c826124ae565b9150612627826123ff565b915081905092915050565b600060208201905061264760008301846121e0565b92915050565b600060808201905061266260008301876121e0565b61266f60208301866121e0565b61267c60408301856125a3565b818103606083015261268e81846121fe565b905095945050505050565b60006020820190506126ae60008301846121ef565b92915050565b600060208201905081810360008301526126ce8184612237565b905092915050565b600060208201905081810360008301526126ef816122a1565b9050919050565b6000602082019050818103600083015261270f816122c4565b9050919050565b6000602082019050818103600083015261272f816122e7565b9050919050565b6000602082019050818103600083015261274f8161230a565b9050919050565b6000602082019050818103600083015261276f8161232d565b9050919050565b6000602082019050818103600083015261278f81612350565b9050919050565b600060208201905081810360008301526127af81612373565b9050919050565b600060208201905081810360008301526127cf81612396565b9050919050565b600060208201905081810360008301526127ef816123b9565b9050919050565b6000602082019050818103600083015261280f816123dc565b9050919050565b6000602082019050818103600083015261282f81612445565b9050919050565b6000602082019050818103600083015261284f81612468565b9050919050565b6000602082019050818103600083015261286f8161248b565b9050919050565b6000602082019050818103600083015261288f816124d1565b9050919050565b600060208201905081810360008301526128af81612517565b9050919050565b600060208201905081810360008301526128cf8161253a565b9050919050565b600060208201905081810360008301526128ef81612580565b9050919050565b600060208201905061290b60008301846125a3565b92915050565b600061291b61292c565b90506129278282612ba7565b919050565b6000604051905090565b600067ffffffffffffffff82111561295157612950612c6f565b5b61295a82612c9e565b9050602081019050919050565b600081519050919050565b600081519050919050565b600082825260208201905092915050565b600082825260208201905092915050565b600081905092915050565b60006129b582612b29565b91506129c083612b29565b9250827fffffffffffffffffffffffffffffffffffffffffffffffffffffffffffffffff038211156129f5576129f4612be2565b5b828201905092915050565b6000612a0b82612b29565b9150612a1683612b29565b925082612a2657612a25612c11565b5b828204905092915050565b6000612a3c82612b29565b9150612a4783612b29565b9250817fffffffffffffffffffffffffffffffffffffffffffffffffffffffffffffffff0483118215151615612a8057612a7f612be2565b5b828202905092915050565b6000612a9682612b29565b9150612aa183612b29565b925082821015612ab457612ab3612be2565b5b828203905092915050565b6000612aca82612b09565b9050919050565b60008115159050919050565b60007fffffffff0000000000000000000000000000000000000000000000000000000082169050919050565b600073ffffffffffffffffffffffffffffffffffffffff82169050919050565b6000819050919050565b82818337600083830152505050565b60005b83811015612b60578082015181840152602081019050612b45565b83811115612b6f576000848401525b50505050565b60006002820490506001821680612b8d57607f821691505b60208210811415612ba157612ba0612c40565b5b50919050565b612bb082612c9e565b810181811067ffffffffffffffff82111715612bcf57612bce612c6f565b5b80604052505050565b6000819050919050565b7f4e487b7100000000000000000000000000000000000000000000000000000000600052601160045260246000fd5b7f4e487b7100000000000000000000000000000000000000000000000000000000600052601260045260246000fd5b7f4e487b7100000000000000000000000000000000000000000000000000000000600052602260045260246000fd5b7f4e487b7100000000000000000000000000000000000000000000000000000000600052604160045260246000fd5b6000601f19601f8301169050919050565b7f455243373231456e756d657261626c653a206f776e657220696e646578206f7560008201527f74206f6620626f756e6473000000000000000000000000000000000000000000602082015250565b7f4552433732313a207472616e7366657220746f206e6f6e20455243373231526560008201527f63656976657220696d706c656d656e7465720000000000000000000000000000602082015250565b7f4552433732313a20746f6b656e20616c7265616479206d696e74656400000000600082015250565b7f4552433732313a207472616e7366657220746f20746865207a65726f2061646460008201527f7265737300000000000000000000000000000000000000000000000000000000602082015250565b7f4552433732313a20617070726f766520746f2063616c6c657200000000000000600082015250565b7f4552433732313a206d696e74696e6720776f756c642065786365656420746f7460008201527f616c20746f6b656e20737570706c790000000000000000000000000000000000602082015250565b7f4552433732313a206f70657261746f7220717565727920666f72206e6f6e657860008201527f697374656e7420746f6b656e0000000000000000000000000000000000000000602082015250565b7f4552433732313a20617070726f76652063616c6c6572206973206e6f74206f7760008201527f6e6572206e6f7220617070726f76656420666f7220616c6c0000000000000000602082015250565b7f4552433732313a2062616c616e636520717565727920666f7220746865207a6560008201527f726f206164647265737300000000000000000000000000000000000000000000602082015250565b7f4552433732313a206f776e657220717565727920666f72206e6f6e657869737460008201527f656e7420746f6b656e0000000000000000000000000000000000000000000000602082015250565b7f227d000000000000000000000000000000000000000000000000000000000000600082015250565b7f222c20226465736372697074696f6e3a2022506c61747a692050756e6b73206160008201527f72652072616e646f6d697a656420417661746172732073746f726564206f6e2060208201527f636861696e20746f207465616368204461707020446576656c6f706d656e742060408201527f6f6e20706c6174697a222c2022696d616765223a202200000000000000000000606082015250565b7f4552433732313a206d696e7420746f20746865207a65726f2061646472657373600082015250565b7f4552433732313a20617070726f76656420717565727920666f72206e6f6e657860008201527f697374656e7420746f6b656e0000000000000000000000000000000000000000602082015250565b7f4552433732313a207472616e73666572206f6620746f6b656e2074686174206960008201527f73206e6f74206f776e0000000000000000000000000000000000000000000000602082015250565b7f2f2f20544f444f3a2043616c63756c61746520696d6167652055524c00000000600082015250565b7f4552433732313a20617070726f76616c20746f2063757272656e74206f776e6560008201527f7200000000000000000000000000000000000000000000000000000000000000602082015250565b7f646174613a6170706c69636174696f6e2f6a736f6e3b6261736536342c000000600082015250565b7f4552433732313a207472616e736665722063616c6c6572206973206e6f74206f60008201527f776e6572206e6f7220617070726f766564000000000000000000000000000000602082015250565b7f455243373231456e756d657261626c653a20676c6f62616c20696e646578206f60008201527f7574206f6620626f756e64730000000000000000000000000000000000000000602082015250565b7f7b226e616d653a2022506c61747a6950756e6b73222023000000000000000000600082015250565b7f4552433732313a2070726f766964656420746f6b656e204944206973206e6f7460008201527f2076616c69640000000000000000000000000000000000000000000000000000602082015250565b6132c481612abf565b81146132cf57600080fd5b50565b6132db81612ad1565b81146132e657600080fd5b50565b6132f281612add565b81146132fd57600080fd5b50565b61330981612b29565b811461331457600080fd5b5056fe4142434445464748494a4b4c4d4e4f505152535455565758595a6162636465666768696a6b6c6d6e6f707172737475767778797a303132333435363738392b2fa2646970667358221220bf5871d096725847c9da3f8ba7b80040fc263807e87321a3f7705a86f9dba90e64736f6c63430008040033",
  "linkReferences": {},
  "deployedLinkReferences": {}
}