{
  "_format": "hh-sol-artifact-1",
  "contractName": "RegalisVRF",
  "sourceName": "contracts/RegalisVRF.sol",
  "abi": [
    {
      "inputs": [
        {
          "internalType": "string[]",
          "name": "characterNames",
          "type": "string[]"
        },
        {
          "internalType": "string[]",
          "name": "characterImageURIs",
          "type": "string[]"
        },
        {
          "internalType": "address",
          "name": "_VRFCordinator",
          "type": "address"
        },
        {
          "internalType": "address",
          "name": "_LinkToken",
          "type": "address"
        },
        {
          "internalType": "bytes32",
          "name": "_keyHash",
          "type": "bytes32"
        },
        {
          "internalType": "uint256",
          "name": "_fee",
          "type": "uint256"
        }
      ],
      "stateMutability": "nonpayable",
      "type": "constructor"
    },
    {
      "anonymous": false,
      "inputs": [
        {
          "indexed": true,
          "internalType": "address",
          "name": "owner",
          "type": "address"
        },
        {
          "indexed": true,
          "internalType": "address",
          "name": "approved",
          "type": "address"
        },
        {
          "indexed": true,
          "internalType": "uint256",
          "name": "tokenId",
          "type": "uint256"
        }
      ],
      "name": "Approval",
      "type": "event"
    },
    {
      "anonymous": false,
      "inputs": [
        {
          "indexed": true,
          "internalType": "address",
          "name": "owner",
          "type": "address"
        },
        {
          "indexed": true,
          "internalType": "address",
          "name": "operator",
          "type": "address"
        },
        {
          "indexed": false,
          "internalType": "bool",
          "name": "approved",
          "type": "bool"
        }
      ],
      "name": "ApprovalForAll",
      "type": "event"
    },
    {
      "anonymous": false,
      "inputs": [
        {
          "indexed": false,
          "internalType": "address",
          "name": "sender",
          "type": "address"
        },
        {
          "indexed": false,
          "internalType": "uint256",
          "name": "tokenId",
          "type": "uint256"
        },
        {
          "indexed": false,
          "internalType": "uint256",
          "name": "characterIndex",
          "type": "uint256"
        }
      ],
      "name": "CharacterNFTMinted",
      "type": "event"
    },
    {
      "anonymous": false,
      "inputs": [
        {
          "indexed": true,
          "internalType": "address",
          "name": "from",
          "type": "address"
        },
        {
          "indexed": true,
          "internalType": "address",
          "name": "to",
          "type": "address"
        },
        {
          "indexed": true,
          "internalType": "uint256",
          "name": "tokenId",
          "type": "uint256"
        }
      ],
      "name": "Transfer",
      "type": "event"
    },
    {
      "inputs": [
        {
          "internalType": "address",
          "name": "to",
          "type": "address"
        },
        {
          "internalType": "uint256",
          "name": "tokenId",
          "type": "uint256"
        }
      ],
      "name": "approve",
      "outputs": [],
      "stateMutability": "nonpayable",
      "type": "function"
    },
    {
      "inputs": [
        {
          "internalType": "address",
          "name": "owner",
          "type": "address"
        }
      ],
      "name": "balanceOf",
      "outputs": [
        {
          "internalType": "uint256",
          "name": "",
          "type": "uint256"
        }
      ],
      "stateMutability": "view",
      "type": "function"
    },
    {
      "inputs": [],
      "name": "checkIfUserHasNFT",
      "outputs": [
        {
          "components": [
            {
              "internalType": "uint256",
              "name": "characterIndex",
              "type": "uint256"
            },
            {
              "internalType": "string",
              "name": "name",
              "type": "string"
            },
            {
              "internalType": "string",
              "name": "imageURI",
              "type": "string"
            }
          ],
          "internalType": "struct RegalisVRF.RegalisBoxes",
          "name": "",
          "type": "tuple"
        }
      ],
      "stateMutability": "view",
      "type": "function"
    },
    {
      "inputs": [],
      "name": "getAllDefaultCharacters",
      "outputs": [
        {
          "components": [
            {
              "internalType": "uint256",
              "name": "characterIndex",
              "type": "uint256"
            },
            {
              "internalType": "string",
              "name": "name",
              "type": "string"
            },
            {
              "internalType": "string",
              "name": "imageURI",
              "type": "string"
            }
          ],
          "internalType": "struct RegalisVRF.RegalisBoxes[]",
          "name": "",
          "type": "tuple[]"
        }
      ],
      "stateMutability": "view",
      "type": "function"
    },
    {
      "inputs": [
        {
          "internalType": "uint256",
          "name": "tokenId",
          "type": "uint256"
        }
      ],
      "name": "getApproved",
      "outputs": [
        {
          "internalType": "address",
          "name": "",
          "type": "address"
        }
      ],
      "stateMutability": "view",
      "type": "function"
    },
    {
      "inputs": [],
      "name": "getRandomBox",
      "outputs": [
        {
          "internalType": "bytes32",
          "name": "",
          "type": "bytes32"
        }
      ],
      "stateMutability": "nonpayable",
      "type": "function"
    },
    {
      "inputs": [
        {
          "internalType": "address",
          "name": "owner",
          "type": "address"
        },
        {
          "internalType": "address",
          "name": "operator",
          "type": "address"
        }
      ],
      "name": "isApprovedForAll",
      "outputs": [
        {
          "internalType": "bool",
          "name": "",
          "type": "bool"
        }
      ],
      "stateMutability": "view",
      "type": "function"
    },
    {
      "inputs": [],
      "name": "name",
      "outputs": [
        {
          "internalType": "string",
          "name": "",
          "type": "string"
        }
      ],
      "stateMutability": "view",
      "type": "function"
    },
    {
      "inputs": [
        {
          "internalType": "uint256",
          "name": "",
          "type": "uint256"
        }
      ],
      "name": "nftHolderAttributes",
      "outputs": [
        {
          "internalType": "uint256",
          "name": "characterIndex",
          "type": "uint256"
        },
        {
          "internalType": "string",
          "name": "name",
          "type": "string"
        },
        {
          "internalType": "string",
          "name": "imageURI",
          "type": "string"
        }
      ],
      "stateMutability": "view",
      "type": "function"
    },
    {
      "inputs": [
        {
          "internalType": "address",
          "name": "",
          "type": "address"
        }
      ],
      "name": "nftHolders",
      "outputs": [
        {
          "internalType": "uint256",
          "name": "",
          "type": "uint256"
        }
      ],
      "stateMutability": "view",
      "type": "function"
    },
    {
      "inputs": [
        {
          "internalType": "uint256",
          "name": "tokenId",
          "type": "uint256"
        }
      ],
      "name": "ownerOf",
      "outputs": [
        {
          "internalType": "address",
          "name": "",
          "type": "address"
        }
      ],
      "stateMutability": "view",
      "type": "function"
    },
    {
      "inputs": [
        {
          "internalType": "bytes32",
          "name": "requestId",
          "type": "bytes32"
        },
        {
          "internalType": "uint256",
          "name": "randomness",
          "type": "uint256"
        }
      ],
      "name": "rawFulfillRandomness",
      "outputs": [],
      "stateMutability": "nonpayable",
      "type": "function"
    },
    {
      "inputs": [
        {
          "internalType": "bytes32",
          "name": "",
          "type": "bytes32"
        }
      ],
      "name": "requestToSender",
      "outputs": [
        {
          "internalType": "address",
          "name": "",
          "type": "address"
        }
      ],
      "stateMutability": "view",
      "type": "function"
    },
    {
      "inputs": [
        {
          "internalType": "address",
          "name": "from",
          "type": "address"
        },
        {
          "internalType": "address",
          "name": "to",
          "type": "address"
        },
        {
          "internalType": "uint256",
          "name": "tokenId",
          "type": "uint256"
        }
      ],
      "name": "safeTransferFrom",
      "outputs": [],
      "stateMutability": "nonpayable",
      "type": "function"
    },
    {
      "inputs": [
        {
          "internalType": "address",
          "name": "from",
          "type": "address"
        },
        {
          "internalType": "address",
          "name": "to",
          "type": "address"
        },
        {
          "internalType": "uint256",
          "name": "tokenId",
          "type": "uint256"
        },
        {
          "internalType": "bytes",
          "name": "_data",
          "type": "bytes"
        }
      ],
      "name": "safeTransferFrom",
      "outputs": [],
      "stateMutability": "nonpayable",
      "type": "function"
    },
    {
      "inputs": [
        {
          "internalType": "address",
          "name": "operator",
          "type": "address"
        },
        {
          "internalType": "bool",
          "name": "approved",
          "type": "bool"
        }
      ],
      "name": "setApprovalForAll",
      "outputs": [],
      "stateMutability": "nonpayable",
      "type": "function"
    },
    {
      "inputs": [
        {
          "internalType": "bytes4",
          "name": "interfaceId",
          "type": "bytes4"
        }
      ],
      "name": "supportsInterface",
      "outputs": [
        {
          "internalType": "bool",
          "name": "",
          "type": "bool"
        }
      ],
      "stateMutability": "view",
      "type": "function"
    },
    {
      "inputs": [],
      "name": "symbol",
      "outputs": [
        {
          "internalType": "string",
          "name": "",
          "type": "string"
        }
      ],
      "stateMutability": "view",
      "type": "function"
    },
    {
      "inputs": [
        {
          "internalType": "uint256",
          "name": "_tokenId",
          "type": "uint256"
        }
      ],
      "name": "tokenURI",
      "outputs": [
        {
          "internalType": "string",
          "name": "",
          "type": "string"
        }
      ],
      "stateMutability": "view",
      "type": "function"
    },
    {
      "inputs": [
        {
          "internalType": "address",
          "name": "from",
          "type": "address"
        },
        {
          "internalType": "address",
          "name": "to",
          "type": "address"
        },
        {
          "internalType": "uint256",
          "name": "tokenId",
          "type": "uint256"
        }
      ],
      "name": "transferFrom",
      "outputs": [],
      "stateMutability": "nonpayable",
      "type": "function"
    }
  ],
  "bytecode": "0x60c06040523480156200001157600080fd5b5060405162004dce38038062004dce833981810160405281019062000037919062000767565b83836040518060400160405280600781526020017f526567616c6973000000000000000000000000000000000000000000000000008152506040518060200160405280600081525081600090805190602001906200009792919062000543565b508060019080519060200190620000b092919062000543565b5050508173ffffffffffffffffffffffffffffffffffffffff1660a08173ffffffffffffffffffffffffffffffffffffffff1660601b815250508073ffffffffffffffffffffffffffffffffffffffff1660808173ffffffffffffffffffffffffffffffffffffffff1660601b8152505050508160098190555080600a8190555060005b86518110156200043757600b60405180606001604052808381526020018984815181106200018b577f4e487b7100000000000000000000000000000000000000000000000000000000600052603260045260246000fd5b60200260200101518152602001888481518110620001d2577f4e487b7100000000000000000000000000000000000000000000000000000000600052603260045260246000fd5b602002602001015181525090806001815401808255809150506001900390600052602060002090600302016000909190919091506000820151816000015560208201518160010190805190602001906200022e92919062000543565b5060408201518160020190805190602001906200024d92919062000543565b5050506000600b82815481106200028d577f4e487b7100000000000000000000000000000000000000000000000000000000600052603260045260246000fd5b906000526020600020906003020160405180606001604052908160008201548152602001600182018054620002c29062000a47565b80601f0160208091040260200160405190810160405280929190818152602001828054620002f09062000a47565b8015620003415780601f10620003155761010080835404028352916020019162000341565b820191906000526020600020905b8154815290600101906020018083116200032357829003601f168201915b505050505081526020016002820180546200035c9062000a47565b80601f01602080910402602001604051908101604052809291908181526020018280546200038a9062000a47565b8015620003db5780601f10620003af57610100808354040283529160200191620003db565b820191906000526020600020905b815481529060010190602001808311620003bd57829003601f168201915b50505050508152505090506200041f60405180606001604052806023815260200162004dab60239139826020015183604001516200045b60201b620014a81760201c565b506001816200042f91906200096c565b905062000134565b506200044f60086200050460201b620015471760201c565b50505050505062000b9f565b620004ff838383604051602401620004769392919062000870565b6040516020818303038152906040527f2ced7cef000000000000000000000000000000000000000000000000000000007bffffffffffffffffffffffffffffffffffffffffffffffffffffffff19166020820180517bffffffffffffffffffffffffffffffffffffffffffffffffffffffff83818316178352505050506200051a60201b60201c565b505050565b6001816000016000828254019250508190555050565b60008151905060006a636f6e736f6c652e6c6f679050602083016000808483855afa5050505050565b828054620005519062000a47565b90600052602060002090601f016020900481019282620005755760008555620005c1565b82601f106200059057805160ff1916838001178555620005c1565b82800160010185558215620005c1579182015b82811115620005c0578251825591602001919060010190620005a3565b5b509050620005d09190620005d4565b5090565b5b80821115620005ef576000816000905550600101620005d5565b5090565b60006200060a6200060484620008eb565b620008c2565b905080838252602082019050828560208602820111156200062a57600080fd5b60005b858110156200067957815167ffffffffffffffff8111156200064e57600080fd5b8086016200065d898262000723565b855260208501945060208401935050506001810190506200062d565b5050509392505050565b60006200069a62000694846200091a565b620008c2565b905082815260208101848484011115620006b357600080fd5b620006c084828562000a11565b509392505050565b600081519050620006d98162000b51565b92915050565b600082601f830112620006f157600080fd5b815162000703848260208601620005f3565b91505092915050565b6000815190506200071d8162000b6b565b92915050565b600082601f8301126200073557600080fd5b81516200074784826020860162000683565b91505092915050565b600081519050620007618162000b85565b92915050565b60008060008060008060c087890312156200078157600080fd5b600087015167ffffffffffffffff8111156200079c57600080fd5b620007aa89828a01620006df565b965050602087015167ffffffffffffffff811115620007c857600080fd5b620007d689828a01620006df565b9550506040620007e989828a01620006c8565b9450506060620007fc89828a01620006c8565b93505060806200080f89828a016200070c565b92505060a06200082289828a0162000750565b9150509295509295509295565b60006200083c8262000950565b6200084881856200095b565b93506200085a81856020860162000a11565b620008658162000b40565b840191505092915050565b600060608201905081810360008301526200088c81866200082f565b90508181036020830152620008a281856200082f565b90508181036040830152620008b881846200082f565b9050949350505050565b6000620008ce620008e1565b9050620008dc828262000a7d565b919050565b6000604051905090565b600067ffffffffffffffff82111562000909576200090862000b11565b5b602082029050602081019050919050565b600067ffffffffffffffff82111562000938576200093762000b11565b5b620009438262000b40565b9050602081019050919050565b600081519050919050565b600082825260208201905092915050565b6000620009798262000a07565b9150620009868362000a07565b9250827fffffffffffffffffffffffffffffffffffffffffffffffffffffffffffffffff03821115620009be57620009bd62000ab3565b5b828201905092915050565b6000620009d682620009e7565b9050919050565b6000819050919050565b600073ffffffffffffffffffffffffffffffffffffffff82169050919050565b6000819050919050565b60005b8381101562000a3157808201518184015260208101905062000a14565b8381111562000a41576000848401525b50505050565b6000600282049050600182168062000a6057607f821691505b6020821081141562000a775762000a7662000ae2565b5b50919050565b62000a888262000b40565b810181811067ffffffffffffffff8211171562000aaa5762000aa962000b11565b5b80604052505050565b7f4e487b7100000000000000000000000000000000000000000000000000000000600052601160045260246000fd5b7f4e487b7100000000000000000000000000000000000000000000000000000000600052602260045260246000fd5b7f4e487b7100000000000000000000000000000000000000000000000000000000600052604160045260246000fd5b6000601f19601f8301169050919050565b62000b5c81620009c9565b811462000b6857600080fd5b50565b62000b7681620009dd565b811462000b8257600080fd5b50565b62000b908162000a07565b811462000b9c57600080fd5b50565b60805160601c60a05160601c6141d262000bd960003960008181610ac30152611a6e01526000818161096e0152611a3201526141d26000f3fe608060405234801561001057600080fd5b506004361061012c5760003560e01c806385ccd9c1116100ad578063b88d4fde11610071578063b88d4fde14610369578063b953084e14610385578063c87b56dd146103a3578063c8cf27f4146103d3578063e985e9c5146103f15761012c565b806385ccd9c1146102c357806394985ddd146102e157806395d89b41146102fd57806398da4c951461031b578063a22cb4651461034d5761012c565b8063274ac0c3116100f4578063274ac0c3146101e757806342842e0e146102175780636352211e1461023357806370a08231146102635780637df124a1146102935761012c565b806301ffc9a71461013157806306fdde0314610161578063081812fc1461017f578063095ea7b3146101af57806323b872dd146101cb575b600080fd5b61014b60048036038101906101469190612bc9565b610421565b604051610158919061335e565b60405180910390f35b610169610503565b6040516101769190613402565b60405180910390f35b61019960048036038101906101949190612c1b565b610595565b6040516101a69190613260565b60405180910390f35b6101c960048036038101906101c49190612aff565b61061a565b005b6101e560048036038101906101e091906129f9565b610732565b005b61020160048036038101906101fc9190612b64565b610792565b60405161020e9190613260565b60405180910390f35b610231600480360381019061022c91906129f9565b6107c5565b005b61024d60048036038101906102489190612c1b565b6107e5565b60405161025a9190613260565b60405180910390f35b61027d60048036038101906102789190612994565b610897565b60405161028a91906136b0565b60405180910390f35b6102ad60048036038101906102a89190612994565b61094f565b6040516102ba91906136b0565b60405180910390f35b6102cb610967565b6040516102d89190613379565b60405180910390f35b6102fb60048036038101906102f69190612b8d565b610ac1565b005b610305610b5d565b6040516103129190613402565b60405180910390f35b61033560048036038101906103309190612c1b565b610bef565b604051610344939291906136cb565b60405180910390f35b61036760048036038101906103629190612ac3565b610d29565b005b610383600480360381019061037e9190612a48565b610eaa565b005b61038d610f0c565b60405161039a919061333c565b60405180910390f35b6103bd60048036038101906103b89190612c1b565b611099565b6040516103ca9190613402565b60405180910390f35b6103db61125a565b6040516103e8919061368e565b60405180910390f35b61040b600480360381019061040691906129bd565b611414565b604051610418919061335e565b60405180910390f35b60007f80ac58cd000000000000000000000000000000000000000000000000000000007bffffffffffffffffffffffffffffffffffffffffffffffffffffffff1916827bffffffffffffffffffffffffffffffffffffffffffffffffffffffff191614806104ec57507f5b5e139f000000000000000000000000000000000000000000000000000000007bffffffffffffffffffffffffffffffffffffffffffffffffffffffff1916827bffffffffffffffffffffffffffffffffffffffffffffffffffffffff1916145b806104fc57506104fb8261155d565b5b9050919050565b606060008054610512906139c8565b80601f016020809104026020016040519081016040528092919081815260200182805461053e906139c8565b801561058b5780601f106105605761010080835404028352916020019161058b565b820191906000526020600020905b81548152906001019060200180831161056e57829003601f168201915b5050505050905090565b60006105a0826115c7565b6105df576040517f08c379a00000000000000000000000000000000000000000000000000000000081526004016105d6906135ee565b60405180910390fd5b6004600083815260200190815260200160002060009054906101000a900473ffffffffffffffffffffffffffffffffffffffff169050919050565b6000610625826107e5565b90508073ffffffffffffffffffffffffffffffffffffffff168373ffffffffffffffffffffffffffffffffffffffff161415610696576040517f08c379a000000000000000000000000000000000000000000000000000000000815260040161068d9061364e565b60405180910390fd5b8073ffffffffffffffffffffffffffffffffffffffff166106b5611633565b73ffffffffffffffffffffffffffffffffffffffff1614806106e457506106e3816106de611633565b611414565b5b610723576040517f08c379a000000000000000000000000000000000000000000000000000000000815260040161071a9061356e565b60405180910390fd5b61072d838361163b565b505050565b61074361073d611633565b826116f4565b610782576040517f08c379a00000000000000000000000000000000000000000000000000000000081526004016107799061366e565b60405180910390fd5b61078d8383836117d2565b505050565b60076020528060005260406000206000915054906101000a900473ffffffffffffffffffffffffffffffffffffffff1681565b6107e083838360405180602001604052806000815250610eaa565b505050565b6000806002600084815260200190815260200160002060009054906101000a900473ffffffffffffffffffffffffffffffffffffffff169050600073ffffffffffffffffffffffffffffffffffffffff168173ffffffffffffffffffffffffffffffffffffffff16141561088e576040517f08c379a0000000000000000000000000000000000000000000000000000000008152600401610885906135ae565b60405180910390fd5b80915050919050565b60008073ffffffffffffffffffffffffffffffffffffffff168273ffffffffffffffffffffffffffffffffffffffff161415610908576040517f08c379a00000000000000000000000000000000000000000000000000000000081526004016108ff9061358e565b60405180910390fd5b600360008373ffffffffffffffffffffffffffffffffffffffff1673ffffffffffffffffffffffffffffffffffffffff168152602001908152602001600020549050919050565b600d6020528060005260406000206000915090505481565b6000600a547f000000000000000000000000000000000000000000000000000000000000000073ffffffffffffffffffffffffffffffffffffffff166370a08231306040518263ffffffff1660e01b81526004016109c59190613260565b60206040518083038186803b1580156109dd57600080fd5b505afa1580156109f1573d6000803e3d6000fd5b505050506040513d601f19601f82011682018060405250810190610a159190612c44565b1015610a56576040517f08c379a0000000000000000000000000000000000000000000000000000000008152600401610a4d9061352e565b60405180910390fd5b6000610a66600954600a54611a2e565b9050336007600083815260200190815260200160002060006101000a81548173ffffffffffffffffffffffffffffffffffffffff021916908373ffffffffffffffffffffffffffffffffffffffff1602179055508091505090565b7f000000000000000000000000000000000000000000000000000000000000000073ffffffffffffffffffffffffffffffffffffffff163373ffffffffffffffffffffffffffffffffffffffff1614610b4f576040517f08c379a0000000000000000000000000000000000000000000000000000000008152600401610b469061362e565b60405180910390fd5b610b598282611b90565b5050565b606060018054610b6c906139c8565b80601f0160208091040260200160405190810160405280929190818152602001828054610b98906139c8565b8015610be55780601f10610bba57610100808354040283529160200191610be5565b820191906000526020600020905b815481529060010190602001808311610bc857829003601f168201915b5050505050905090565b600c602052806000526040600020600091509050806000015490806001018054610c18906139c8565b80601f0160208091040260200160405190810160405280929190818152602001828054610c44906139c8565b8015610c915780601f10610c6657610100808354040283529160200191610c91565b820191906000526020600020905b815481529060010190602001808311610c7457829003601f168201915b505050505090806002018054610ca6906139c8565b80601f0160208091040260200160405190810160405280929190818152602001828054610cd2906139c8565b8015610d1f5780601f10610cf457610100808354040283529160200191610d1f565b820191906000526020600020905b815481529060010190602001808311610d0257829003601f168201915b5050505050905083565b610d31611633565b73ffffffffffffffffffffffffffffffffffffffff168273ffffffffffffffffffffffffffffffffffffffff161415610d9f576040517f08c379a0000000000000000000000000000000000000000000000000000000008152600401610d969061350e565b60405180910390fd5b8060056000610dac611633565b73ffffffffffffffffffffffffffffffffffffffff1673ffffffffffffffffffffffffffffffffffffffff16815260200190815260200160002060008473ffffffffffffffffffffffffffffffffffffffff1673ffffffffffffffffffffffffffffffffffffffff16815260200190815260200160002060006101000a81548160ff0219169083151502179055508173ffffffffffffffffffffffffffffffffffffffff16610e59611633565b73ffffffffffffffffffffffffffffffffffffffff167f17307eab39ab6107e8899845ad3d59bd9653f200f220920489ca2b5937696c3183604051610e9e919061335e565b60405180910390a35050565b610ebb610eb5611633565b836116f4565b610efa576040517f08c379a0000000000000000000000000000000000000000000000000000000008152600401610ef19061366e565b60405180910390fd5b610f0684848484611bed565b50505050565b6060600b805480602002602001604051908101604052809291908181526020016000905b82821015611090578382906000526020600020906003020160405180606001604052908160008201548152602001600182018054610f6d906139c8565b80601f0160208091040260200160405190810160405280929190818152602001828054610f99906139c8565b8015610fe65780601f10610fbb57610100808354040283529160200191610fe6565b820191906000526020600020905b815481529060010190602001808311610fc957829003601f168201915b50505050508152602001600282018054610fff906139c8565b80601f016020809104026020016040519081016040528092919081815260200182805461102b906139c8565b80156110785780601f1061104d57610100808354040283529160200191611078565b820191906000526020600020905b81548152906001019060200180831161105b57829003601f168201915b50505050508152505081526020019060010190610f30565b50505050905090565b60606000600c6000848152602001908152602001600020604051806060016040529081600082015481526020016001820180546110d5906139c8565b80601f0160208091040260200160405190810160405280929190818152602001828054611101906139c8565b801561114e5780601f106111235761010080835404028352916020019161114e565b820191906000526020600020905b81548152906001019060200180831161113157829003601f168201915b50505050508152602001600282018054611167906139c8565b80601f0160208091040260200160405190810160405280929190818152602001828054611193906139c8565b80156111e05780601f106111b5576101008083540402835291602001916111e0565b820191906000526020600020905b8154815290600101906020018083116111c357829003601f168201915b5050505050815250509050600061122982602001516111fe86611c49565b8460400151604051602001611215939291906131e1565b604051602081830303815290604052611df6565b905060008160405160200161123e919061323e565b6040516020818303038152906040529050809350505050919050565b6112626127c0565b6000600d60003373ffffffffffffffffffffffffffffffffffffffff1673ffffffffffffffffffffffffffffffffffffffff168152602001908152602001600020549050600081111561140357600c6000828152602001908152602001600020604051806060016040529081600082015481526020016001820180546112e7906139c8565b80601f0160208091040260200160405190810160405280929190818152602001828054611313906139c8565b80156113605780601f1061133557610100808354040283529160200191611360565b820191906000526020600020905b81548152906001019060200180831161134357829003601f168201915b50505050508152602001600282018054611379906139c8565b80601f01602080910402602001604051908101604052809291908181526020018280546113a5906139c8565b80156113f25780601f106113c7576101008083540402835291602001916113f2565b820191906000526020600020905b8154815290600101906020018083116113d557829003601f168201915b505050505081525050915050611411565b61140b6127c0565b80925050505b90565b6000600560008473ffffffffffffffffffffffffffffffffffffffff1673ffffffffffffffffffffffffffffffffffffffff16815260200190815260200160002060008373ffffffffffffffffffffffffffffffffffffffff1673ffffffffffffffffffffffffffffffffffffffff16815260200190815260200160002060009054906101000a900460ff16905092915050565b6115428383836040516024016114c093929190613424565b6040516020818303038152906040527f2ced7cef000000000000000000000000000000000000000000000000000000007bffffffffffffffffffffffffffffffffffffffffffffffffffffffff19166020820180517bffffffffffffffffffffffffffffffffffffffffffffffffffffffff8381831617835250505050611fa1565b505050565b6001816000016000828254019250508190555050565b60007f01ffc9a7000000000000000000000000000000000000000000000000000000007bffffffffffffffffffffffffffffffffffffffffffffffffffffffff1916827bffffffffffffffffffffffffffffffffffffffffffffffffffffffff1916149050919050565b60008073ffffffffffffffffffffffffffffffffffffffff166002600084815260200190815260200160002060009054906101000a900473ffffffffffffffffffffffffffffffffffffffff1673ffffffffffffffffffffffffffffffffffffffff1614159050919050565b600033905090565b816004600083815260200190815260200160002060006101000a81548173ffffffffffffffffffffffffffffffffffffffff021916908373ffffffffffffffffffffffffffffffffffffffff160217905550808273ffffffffffffffffffffffffffffffffffffffff166116ae836107e5565b73ffffffffffffffffffffffffffffffffffffffff167f8c5be1e5ebec7d5bd14f71427d1e84f3dd0314c0f7b2291e5b200ac8c7c3b92560405160405180910390a45050565b60006116ff826115c7565b61173e576040517f08c379a00000000000000000000000000000000000000000000000000000000081526004016117359061354e565b60405180910390fd5b6000611749836107e5565b90508073ffffffffffffffffffffffffffffffffffffffff168473ffffffffffffffffffffffffffffffffffffffff1614806117b857508373ffffffffffffffffffffffffffffffffffffffff166117a084610595565b73ffffffffffffffffffffffffffffffffffffffff16145b806117c957506117c88185611414565b5b91505092915050565b8273ffffffffffffffffffffffffffffffffffffffff166117f2826107e5565b73ffffffffffffffffffffffffffffffffffffffff1614611848576040517f08c379a000000000000000000000000000000000000000000000000000000000815260040161183f9061360e565b60405180910390fd5b600073ffffffffffffffffffffffffffffffffffffffff168273ffffffffffffffffffffffffffffffffffffffff1614156118b8576040517f08c379a00000000000000000000000000000000000000000000000000000000081526004016118af906134ee565b60405180910390fd5b6118c3838383611fca565b6118ce60008261163b565b6001600360008573ffffffffffffffffffffffffffffffffffffffff1673ffffffffffffffffffffffffffffffffffffffff168152602001908152602001600020600082825461191e91906138d4565b925050819055506001600360008473ffffffffffffffffffffffffffffffffffffffff1673ffffffffffffffffffffffffffffffffffffffff168152602001908152602001600020600082825461197591906137f3565b92505081905550816002600083815260200190815260200160002060006101000a81548173ffffffffffffffffffffffffffffffffffffffff021916908373ffffffffffffffffffffffffffffffffffffffff160217905550808273ffffffffffffffffffffffffffffffffffffffff168473ffffffffffffffffffffffffffffffffffffffff167fddf252ad1be2c89b69c2b068fc378daa952ba7f163c4a11628f55a4df523b3ef60405160405180910390a4505050565b60007f000000000000000000000000000000000000000000000000000000000000000073ffffffffffffffffffffffffffffffffffffffff16634000aea07f000000000000000000000000000000000000000000000000000000000000000084866000604051602001611aa2929190613394565b6040516020818303038152906040526040518463ffffffff1660e01b8152600401611acf939291906132c7565b602060405180830381600087803b158015611ae957600080fd5b505af1158015611afd573d6000803e3d6000fd5b505050506040513d601f19601f82011682018060405250810190611b219190612b3b565b506000611b44846000306006600089815260200190815260200160002054611fcf565b905060016006600086815260200190815260200160002054611b6691906137f3565b6006600086815260200190815260200160002081905550611b87848261200b565b91505092915050565b60006007600084815260200190815260200160002060009054906101000a900473ffffffffffffffffffffffffffffffffffffffff1690506000600b8054905083611bdb9190613a88565b9050611be7818361203e565b50505050565b611bf88484846117d2565b611c0484848484612322565b611c43576040517f08c379a0000000000000000000000000000000000000000000000000000000008152600401611c3a906134ae565b60405180910390fd5b50505050565b60606000821415611c91576040518060400160405280600181526020017f30000000000000000000000000000000000000000000000000000000000000008152509050611df1565b600082905060005b60008214611cc3578080611cac90613a2b565b915050600a82611cbc9190613849565b9150611c99565b60008167ffffffffffffffff811115611d05577f4e487b7100000000000000000000000000000000000000000000000000000000600052604160045260246000fd5b6040519080825280601f01601f191660200182016040528015611d375781602001600182028036833780820191505090505b5090505b60008514611dea57600182611d5091906138d4565b9150600a85611d5f9190613a88565b6030611d6b91906137f3565b60f81b818381518110611da7577f4e487b7100000000000000000000000000000000000000000000000000000000600052603260045260246000fd5b60200101907effffffffffffffffffffffffffffffffffffffffffffffffffffffffffffff1916908160001a905350600a85611de39190613849565b9450611d3b565b8093505050505b919050565b6060600082511415611e1957604051806020016040528060008152509050611f9c565b600060405180606001604052806040815260200161411c6040913990506000600360028551611e4891906137f3565b611e529190613849565b6004611e5e919061387a565b90506000602082611e6f91906137f3565b67ffffffffffffffff811115611eae577f4e487b7100000000000000000000000000000000000000000000000000000000600052604160045260246000fd5b6040519080825280601f01601f191660200182016040528015611ee05781602001600182028036833780820191505090505b509050818152600183018586518101602084015b81831015611f5b576003830192508251603f8160121c1685015160f81b8252600182019150603f81600c1c1685015160f81b8252600182019150603f8160061c1685015160f81b8252600182019150603f811685015160f81b825260018201915050611ef4565b600389510660018114611f755760028114611f8557611f90565b613d3d60f01b6002830352611f90565b603d60f81b60018303525b50505050508093505050505b919050565b60008151905060006a636f6e736f6c652e6c6f679050602083016000808483855afa5050505050565b505050565b600084848484604051602001611fe894939291906133bd565b6040516020818303038152906040528051906020012060001c9050949350505050565b600082826040516020016120209291906131b5565b60405160208183030381529060405280519060200120905092915050565b600061204a60086124b9565b905061205682826124c7565b6040518060600160405280848152602001600b85815481106120a1577f4e487b7100000000000000000000000000000000000000000000000000000000600052603260045260246000fd5b906000526020600020906003020160010180546120bd906139c8565b80601f01602080910402602001604051908101604052809291908181526020018280546120e9906139c8565b80156121365780601f1061210b57610100808354040283529160200191612136565b820191906000526020600020905b81548152906001019060200180831161211957829003601f168201915b50505050508152602001600b858154811061217a577f4e487b7100000000000000000000000000000000000000000000000000000000600052603260045260246000fd5b90600052602060002090600302016002018054612196906139c8565b80601f01602080910402602001604051908101604052809291908181526020018280546121c2906139c8565b801561220f5780601f106121e45761010080835404028352916020019161220f565b820191906000526020600020905b8154815290600101906020018083116121f257829003601f168201915b5050505050815250600c60008381526020019081526020016000206000820151816000015560208201518160010190805190602001906122509291906127e1565b50604082015181600201908051906020019061226d9291906127e1565b5090505061229460405180608001604052806041815260200161415c6041913982856124e5565b80600d60008473ffffffffffffffffffffffffffffffffffffffff1673ffffffffffffffffffffffffffffffffffffffff168152602001908152602001600020819055506122e26008611547565b7f4bc303fd457a97b4691b9af582ce71868a3d258638c8d4f8c60988a0f0bfb8cd82828560405161231593929190613305565b60405180910390a1505050565b60006123438473ffffffffffffffffffffffffffffffffffffffff16612584565b156124ac578373ffffffffffffffffffffffffffffffffffffffff1663150b7a0261236c611633565b8786866040518563ffffffff1660e01b815260040161238e949392919061327b565b602060405180830381600087803b1580156123a857600080fd5b505af19250505080156123d957506040513d601f19601f820116820180604052508101906123d69190612bf2565b60015b61245c573d8060008114612409576040519150601f19603f3d011682016040523d82523d6000602084013e61240e565b606091505b50600081511415612454576040517f08c379a000000000000000000000000000000000000000000000000000000000815260040161244b906134ae565b60405180910390fd5b805181602001fd5b63150b7a0260e01b7bffffffffffffffffffffffffffffffffffffffffffffffffffffffff1916817bffffffffffffffffffffffffffffffffffffffffffffffffffffffff1916149150506124b1565b600190505b949350505050565b600081600001549050919050565b6124e1828260405180602001604052806000815250612597565b5050565b61257f8383836040516024016124fd93929190613470565b6040516020818303038152906040527f969cdd03000000000000000000000000000000000000000000000000000000007bffffffffffffffffffffffffffffffffffffffffffffffffffffffff19166020820180517bffffffffffffffffffffffffffffffffffffffffffffffffffffffff8381831617835250505050611fa1565b505050565b600080823b905060008111915050919050565b6125a183836125f2565b6125ae6000848484612322565b6125ed576040517f08c379a00000000000000000000000000000000000000000000000000000000081526004016125e4906134ae565b60405180910390fd5b505050565b600073ffffffffffffffffffffffffffffffffffffffff168273ffffffffffffffffffffffffffffffffffffffff161415612662576040517f08c379a0000000000000000000000000000000000000000000000000000000008152600401612659906135ce565b60405180910390fd5b61266b816115c7565b156126ab576040517f08c379a00000000000000000000000000000000000000000000000000000000081526004016126a2906134ce565b60405180910390fd5b6126b760008383611fca565b6001600360008473ffffffffffffffffffffffffffffffffffffffff1673ffffffffffffffffffffffffffffffffffffffff168152602001908152602001600020600082825461270791906137f3565b92505081905550816002600083815260200190815260200160002060006101000a81548173ffffffffffffffffffffffffffffffffffffffff021916908373ffffffffffffffffffffffffffffffffffffffff160217905550808273ffffffffffffffffffffffffffffffffffffffff16600073ffffffffffffffffffffffffffffffffffffffff167fddf252ad1be2c89b69c2b068fc378daa952ba7f163c4a11628f55a4df523b3ef60405160405180910390a45050565b60405180606001604052806000815260200160608152602001606081525090565b8280546127ed906139c8565b90600052602060002090601f01602090048101928261280f5760008555612856565b82601f1061282857805160ff1916838001178555612856565b82800160010185558215612856579182015b8281111561285557825182559160200191906001019061283a565b5b5090506128639190612867565b5090565b5b80821115612880576000816000905550600101612868565b5090565b600061289761289284613735565b613710565b9050828152602081018484840111156128af57600080fd5b6128ba848285613986565b509392505050565b6000813590506128d1816140a8565b92915050565b6000813590506128e6816140bf565b92915050565b6000815190506128fb816140bf565b92915050565b600081359050612910816140d6565b92915050565b600081359050612925816140ed565b92915050565b60008151905061293a816140ed565b92915050565b600082601f83011261295157600080fd5b8135612961848260208601612884565b91505092915050565b60008135905061297981614104565b92915050565b60008151905061298e81614104565b92915050565b6000602082840312156129a657600080fd5b60006129b4848285016128c2565b91505092915050565b600080604083850312156129d057600080fd5b60006129de858286016128c2565b92505060206129ef858286016128c2565b9150509250929050565b600080600060608486031215612a0e57600080fd5b6000612a1c868287016128c2565b9350506020612a2d868287016128c2565b9250506040612a3e8682870161296a565b9150509250925092565b60008060008060808587031215612a5e57600080fd5b6000612a6c878288016128c2565b9450506020612a7d878288016128c2565b9350506040612a8e8782880161296a565b925050606085013567ffffffffffffffff811115612aab57600080fd5b612ab787828801612940565b91505092959194509250565b60008060408385031215612ad657600080fd5b6000612ae4858286016128c2565b9250506020612af5858286016128d7565b9150509250929050565b60008060408385031215612b1257600080fd5b6000612b20858286016128c2565b9250506020612b318582860161296a565b9150509250929050565b600060208284031215612b4d57600080fd5b6000612b5b848285016128ec565b91505092915050565b600060208284031215612b7657600080fd5b6000612b8484828501612901565b91505092915050565b60008060408385031215612ba057600080fd5b6000612bae85828601612901565b9250506020612bbf8582860161296a565b9150509250929050565b600060208284031215612bdb57600080fd5b6000612be984828501612916565b91505092915050565b600060208284031215612c0457600080fd5b6000612c128482850161292b565b91505092915050565b600060208284031215612c2d57600080fd5b6000612c3b8482850161296a565b91505092915050565b600060208284031215612c5657600080fd5b6000612c648482850161297f565b91505092915050565b6000612c7983836130d2565b905092915050565b612c8a81613908565b82525050565b6000612c9b82613776565b612ca581856137a4565b935083602082028501612cb785613766565b8060005b85811015612cf35784840389528151612cd48582612c6d565b9450612cdf83613797565b925060208a01995050600181019050612cbb565b50829750879550505050505092915050565b612d0e8161391a565b82525050565b612d1d81613926565b82525050565b612d34612d2f82613926565b613a74565b82525050565b6000612d4582613781565b612d4f81856137b5565b9350612d5f818560208601613995565b612d6881613b75565b840191505092915050565b6000612d7e8261378c565b612d8881856137c6565b9350612d98818560208601613995565b612da181613b75565b840191505092915050565b6000612db78261378c565b612dc181856137d7565b9350612dd1818560208601613995565b612dda81613b75565b840191505092915050565b6000612df08261378c565b612dfa81856137e8565b9350612e0a818560208601613995565b80840191505092915050565b6000612e23600b836137e8565b9150612e2e82613b86565b600b82019050919050565b6000612e466032836137d7565b9150612e5182613baf565b604082019050919050565b6000612e69601c836137d7565b9150612e7482613bfe565b602082019050919050565b6000612e8c6024836137d7565b9150612e9782613c27565b604082019050919050565b6000612eaf6019836137d7565b9150612eba82613c76565b602082019050919050565b6000612ed2602b836137d7565b9150612edd82613c9f565b604082019050919050565b6000612ef5602c836137d7565b9150612f0082613cee565b604082019050919050565b6000612f186038836137d7565b9150612f2382613d3d565b604082019050919050565b6000612f3b602a836137d7565b9150612f4682613d8c565b604082019050919050565b6000612f5e6029836137d7565b9150612f6982613ddb565b604082019050919050565b6000612f81605b836137e8565b9150612f8c82613e2a565b605b82019050919050565b6000612fa46002836137e8565b9150612faf82613e9f565b600282019050919050565b6000612fc76020836137d7565b9150612fd282613ec8565b602082019050919050565b6000612fea602c836137d7565b9150612ff582613ef1565b604082019050919050565b600061300d6029836137d7565b915061301882613f40565b604082019050919050565b6000613030600a836137e8565b915061303b82613f8f565b600a82019050919050565b6000613053601f836137d7565b915061305e82613fb8565b602082019050919050565b60006130766021836137d7565b915061308182613fe1565b604082019050919050565b6000613099601d836137e8565b91506130a482614030565b601d82019050919050565b60006130bc6031836137d7565b91506130c782614059565b604082019050919050565b60006060830160008301516130ea6000860182613180565b50602083015184820360208601526131028282612d73565b9150506040830151848203604086015261311c8282612d73565b9150508091505092915050565b60006060830160008301516131416000860182613180565b50602083015184820360208601526131598282612d73565b915050604083015184820360408601526131738282612d73565b9150508091505092915050565b6131898161397c565b82525050565b6131988161397c565b82525050565b6131af6131aa8261397c565b613a7e565b82525050565b60006131c18285612d23565b6020820191506131d1828461319e565b6020820191508190509392505050565b60006131ec82613023565b91506131f88286612de5565b915061320382612e16565b915061320f8285612de5565b915061321a82612f74565b91506132268284612de5565b915061323182612f97565b9150819050949350505050565b60006132498261308c565b91506132558284612de5565b915081905092915050565b60006020820190506132756000830184612c81565b92915050565b60006080820190506132906000830187612c81565b61329d6020830186612c81565b6132aa604083018561318f565b81810360608301526132bc8184612d3a565b905095945050505050565b60006060820190506132dc6000830186612c81565b6132e9602083018561318f565b81810360408301526132fb8184612d3a565b9050949350505050565b600060608201905061331a6000830186612c81565b613327602083018561318f565b613334604083018461318f565b949350505050565b600060208201905081810360008301526133568184612c90565b905092915050565b60006020820190506133736000830184612d05565b92915050565b600060208201905061338e6000830184612d14565b92915050565b60006040820190506133a96000830185612d14565b6133b6602083018461318f565b9392505050565b60006080820190506133d26000830187612d14565b6133df602083018661318f565b6133ec6040830185612c81565b6133f9606083018461318f565b95945050505050565b6000602082019050818103600083015261341c8184612dac565b905092915050565b6000606082019050818103600083015261343e8186612dac565b905081810360208301526134528185612dac565b905081810360408301526134668184612dac565b9050949350505050565b6000606082019050818103600083015261348a8186612dac565b9050613499602083018561318f565b6134a6604083018461318f565b949350505050565b600060208201905081810360008301526134c781612e39565b9050919050565b600060208201905081810360008301526134e781612e5c565b9050919050565b6000602082019050818103600083015261350781612e7f565b9050919050565b6000602082019050818103600083015261352781612ea2565b9050919050565b6000602082019050818103600083015261354781612ec5565b9050919050565b6000602082019050818103600083015261356781612ee8565b9050919050565b6000602082019050818103600083015261358781612f0b565b9050919050565b600060208201905081810360008301526135a781612f2e565b9050919050565b600060208201905081810360008301526135c781612f51565b9050919050565b600060208201905081810360008301526135e781612fba565b9050919050565b6000602082019050818103600083015261360781612fdd565b9050919050565b6000602082019050818103600083015261362781613000565b9050919050565b6000602082019050818103600083015261364781613046565b9050919050565b6000602082019050818103600083015261366781613069565b9050919050565b60006020820190508181036000830152613687816130af565b9050919050565b600060208201905081810360008301526136a88184613129565b905092915050565b60006020820190506136c5600083018461318f565b92915050565b60006060820190506136e0600083018661318f565b81810360208301526136f28185612dac565b905081810360408301526137068184612dac565b9050949350505050565b600061371a61372b565b905061372682826139fa565b919050565b6000604051905090565b600067ffffffffffffffff8211156137505761374f613b46565b5b61375982613b75565b9050602081019050919050565b6000819050602082019050919050565b600081519050919050565b600081519050919050565b600081519050919050565b6000602082019050919050565b600082825260208201905092915050565b600082825260208201905092915050565b600082825260208201905092915050565b600082825260208201905092915050565b600081905092915050565b60006137fe8261397c565b91506138098361397c565b9250827fffffffffffffffffffffffffffffffffffffffffffffffffffffffffffffffff0382111561383e5761383d613ab9565b5b828201905092915050565b60006138548261397c565b915061385f8361397c565b92508261386f5761386e613ae8565b5b828204905092915050565b60006138858261397c565b91506138908361397c565b9250817fffffffffffffffffffffffffffffffffffffffffffffffffffffffffffffffff04831182151516156138c9576138c8613ab9565b5b828202905092915050565b60006138df8261397c565b91506138ea8361397c565b9250828210156138fd576138fc613ab9565b5b828203905092915050565b60006139138261395c565b9050919050565b60008115159050919050565b6000819050919050565b60007fffffffff0000000000000000000000000000000000000000000000000000000082169050919050565b600073ffffffffffffffffffffffffffffffffffffffff82169050919050565b6000819050919050565b82818337600083830152505050565b60005b838110156139b3578082015181840152602081019050613998565b838111156139c2576000848401525b50505050565b600060028204905060018216806139e057607f821691505b602082108114156139f4576139f3613b17565b5b50919050565b613a0382613b75565b810181811067ffffffffffffffff82111715613a2257613a21613b46565b5b80604052505050565b6000613a368261397c565b91507fffffffffffffffffffffffffffffffffffffffffffffffffffffffffffffffff821415613a6957613a68613ab9565b5b600182019050919050565b6000819050919050565b6000819050919050565b6000613a938261397c565b9150613a9e8361397c565b925082613aae57613aad613ae8565b5b828206905092915050565b7f4e487b7100000000000000000000000000000000000000000000000000000000600052601160045260246000fd5b7f4e487b7100000000000000000000000000000000000000000000000000000000600052601260045260246000fd5b7f4e487b7100000000000000000000000000000000000000000000000000000000600052602260045260246000fd5b7f4e487b7100000000000000000000000000000000000000000000000000000000600052604160045260246000fd5b6000601f19601f8301169050919050565b7f202d2d204e465420233a20000000000000000000000000000000000000000000600082015250565b7f4552433732313a207472616e7366657220746f206e6f6e20455243373231526560008201527f63656976657220696d706c656d656e7465720000000000000000000000000000602082015250565b7f4552433732313a20746f6b656e20616c7265616479206d696e74656400000000600082015250565b7f4552433732313a207472616e7366657220746f20746865207a65726f2061646460008201527f7265737300000000000000000000000000000000000000000000000000000000602082015250565b7f4552433732313a20617070726f766520746f2063616c6c657200000000000000600082015250565b7f4e6f7420656e6f756768204c494e4b202d2066696c6c20636f6e74726163742060008201527f7769746820666175636574000000000000000000000000000000000000000000602082015250565b7f4552433732313a206f70657261746f7220717565727920666f72206e6f6e657860008201527f697374656e7420746f6b656e0000000000000000000000000000000000000000602082015250565b7f4552433732313a20617070726f76652063616c6c6572206973206e6f74206f7760008201527f6e6572206e6f7220617070726f76656420666f7220616c6c0000000000000000602082015250565b7f4552433732313a2062616c616e636520717565727920666f7220746865207a6560008201527f726f206164647265737300000000000000000000000000000000000000000000602082015250565b7f4552433732313a206f776e657220717565727920666f72206e6f6e657869737460008201527f656e7420746f6b656e0000000000000000000000000000000000000000000000602082015250565b7f222c20226465736372697074696f6e223a2022546869732069732061204e465460008201527f207468617420776173206f627461696e656420696e206120626f78206f66207260208201527f6567616c69732e222c2022696d616765223a2022697066733a2f2f0000000000604082015250565b7f227d000000000000000000000000000000000000000000000000000000000000600082015250565b7f4552433732313a206d696e7420746f20746865207a65726f2061646472657373600082015250565b7f4552433732313a20617070726f76656420717565727920666f72206e6f6e657860008201527f697374656e7420746f6b656e0000000000000000000000000000000000000000602082015250565b7f4552433732313a207472616e73666572206f6620746f6b656e2074686174206960008201527f73206e6f74206f776e0000000000000000000000000000000000000000000000602082015250565b7f7b226e616d65223a202200000000000000000000000000000000000000000000600082015250565b7f4f6e6c7920565246436f6f7264696e61746f722063616e2066756c66696c6c00600082015250565b7f4552433732313a20617070726f76616c20746f2063757272656e74206f776e6560008201527f7200000000000000000000000000000000000000000000000000000000000000602082015250565b7f646174613a6170706c69636174696f6e2f6a736f6e3b6261736536342c000000600082015250565b7f4552433732313a207472616e736665722063616c6c6572206973206e6f74206f60008201527f776e6572206e6f7220617070726f766564000000000000000000000000000000602082015250565b6140b181613908565b81146140bc57600080fd5b50565b6140c88161391a565b81146140d357600080fd5b50565b6140df81613926565b81146140ea57600080fd5b50565b6140f681613930565b811461410157600080fd5b50565b61410d8161397c565b811461411857600080fd5b5056fe4142434445464748494a4b4c4d4e4f505152535455565758595a6162636465666768696a6b6c6d6e6f707172737475767778797a303132333435363738392b2f4d696e746564204e465420772f20746f6b656e496420257320616e6420636861726163746572496e6465782025732c20436861726163746572206e616d65202573a26469706673582212200c222cd459ffadf4074f7e3f4864f40d5f7562dbde6e046bf6ee559ef810147e64736f6c63430008040033446f6e6520696e697469616c697a696e6720257320772f20696d675572693a2025732c",
  "linkReferences": {},
  "deployedLinkReferences": {}
}